:100000000C9402070C9446070C9446070C94460780
:100010000C9446070C9446070C9446070C9446072C
:100020000C9446070C9446070C945D120C942F1305
:100030000C9446070C9446070C9446070C9446070C
:100040000C9446070C94052C0C9446070C94460718
:100050000C9446070C940C220C9446070C9446070B
:100060000C9446070C9446070C9446070C944607DC
:100070000C9446070C9446070C9446070C944607CC
:100080000C9446070C9446070C9446070C944607BC
:100090000C9446070C9446070C9446070C944607AC
:1000A0000C9446070C9446070C9446079413B61319
:1000B000A114B613A114F8131B14A1147014831403
:1000C000D117D117FF17FF1742187E187F1A7F1A12
:1000D00096187F1A8D198D19591A7F1A7F1A6D1A61
:1000E0000000F0A12E004C002971E10035810000D4
:1000F0001E00140004001D7134004D001F001A0082
:1001000016001B00E1042A0020000800070006007A
:1001100050002C0021001500090019004F004A0072
:10012000220017000A000500000065745000015409
:100130000000007F0000E3004F0001540000007742
:100140000000E20023001C000B00110000002971D8
:10015000240018000D00100052004B0025000C0078
:100160000E00360051002800260012000F00370054
:100170002F002B00270013003382387130004E000F
:100180002D003100E300E500C10000000100010086
:1001900001000100010000003A001E0220022202BC
:1001A000010001003B001F022102230201000100A7
:1001B0003C002F0226022F00010001003D0030020A
:1001C00027023000010001003E00310235003502F7
:1001D000000001000100010000000100000001001A
:1001E0000100010000000100000001003F0052007A
:1001F00051002402000001004000240021001E00E4
:10020000010001004100250022001F00370001000D
:1002100042002600230020002700010043002502A1
:100220002E0231002E0001004400450001000100B3
:1002300001000000010001000100010001000000B8
:1002400001000100010001000100010001000100A6
:10025000F2000100010001000100F000F1000100C6
:10026000F400010001000100F3000100F5000100AD
:100270000100010001000100000001000100010077
:100280000000010000000100010001000000010069
:100290000000010001000100010001000000010058
:1002A0000100010001000100A9000100010001009E
:1002B0000100AC00AA00B600010001000100AB0083
:1002C000A80001000100010001000100010001007F
:1002D00001000100AE000100010000000A0025300D
:1002E000313662003A200025303258000A722F63FE
:1002F0002030313233343536373839414243444582
:10030000460A000A002530325800626F756E636538
:10031000213A20006C6566742073696465206174FD
:100320007461636865640A006C656674207369644F
:1003300065206E6F7420726573706F6E64696E678E
:100340000A00747279696E6720746F207265736534
:1003500074206D637032333031380A000A444542EC
:1003600055473A20656E61626C65642E0A005B73C6
:100370005D004B6579626F617264207374617274A1
:100380002E0A005B575D005B535D005B525D005BB6
:10039000445D005B435D0016034500720067006F1B
:1003A0000044006F007800200045005A000000164D
:1003B000034500720067006F0044006F0078002062
:1003C0000045005A0000000403090409028D0005DD
:1003D0000100A0FA09040000010301010009211134
:1003E000010001223F000705810308000A090401FA
:1003F000000103010200092111010001224D000743
:1004000005820308000A0904020001030000000934
:1004100021110100012236000705830308000A09A3
:100420000403000203000000092111010001222041
:1004300000070584032000010705040320000109CB
:100440000404000103000000092111010001223908
:1004500000070585031000011201100100000008CB
:10046000EDFE071301000102000105010906A101CB
:10047000050719E029E71500250195087501810296
:100480000508190129059505750191029501750366
:100490009101050719002977150025019578750147
:1004A0008102C00631FF0974A1010975150025FFFD
:1004B0009520750881020976150025FF952075089D
:1004C0009102C005010980A101850216010026B72D
:1004D000001A01002AB700751095018100C0050CB3
:1004E0000901A1018503160100269C021A01002AB8
:1004F0009C02751095018100C005010902A1010946
:1005000001A10005091901290515002501950575A9
:100510000181029501750381010501093009311539
:1005200081257F95027508810609381581257F95FB
:100530000175088106050C0A38021581257F950191
:1005400075088106C0C005010906A101050719E06B
:1005500029E71500250195087501810295017508A7
:10056000810105081901290595057501910295017B
:10057000750391010507190029FF150025FF950650
:1005800075088100C00A002530325820006B65795B
:10059000626F6172645F7265706F72743A20000AF4
:1005A0000025303258006B6579626F6172645F7349
:1005B00065745F6C65643A200064656C5F6B657997
:1005C0005F6269743A2063616E27742064656C3AD7
:1005D00020253032580A006164645F6B65795F6280
:1005E00069743A2063616E2774206164643A20253F
:1005F0003032580A00646F6E652E0A00626F6F67B2
:100600006D61676963207363616E3A202E2E2E2020
:1006100000290A002575002F002575005D2800259A
:10062000640020002564002000256400200025646B
:10063000007C0025303258006D6F7573656B6579ED
:10064000205B62746E7C782079207620685D287249
:1006500065702F61636C293A205B006D6B5F776872
:1006600065656C5F74696D655F746F5F6D6178203F
:100670003D2025640A006D6B5F776865656C5F6D72
:1006800061785F7370656564203D2025640A006DA4
:100690006B5F74696D655F746F5F6D6178203D207D
:1006A00025640A006D6B5F6D61785F7370656564CA
:1006B000203D2025640A006D6B5F696E746572765B
:1006C000616C203D2025640A006D6B5F64656C6180
:1006D00079203D2025640A006D6B5F776865656C45
:1006E0005F74696D655F746F5F6D6178203D202573
:1006F000640A006D6B5F776865656C5F6D61785F3C
:100700007370656564203D2025640A006D6B5F741D
:10071000696D655F746F5F6D6178203D2025640AA7
:10072000006D6B5F6D61785F7370656564203D205F
:1007300025640A006D6B5F696E74657276616C206A
:100740003D2025640A006D6B5F64656C6179203D16
:100750002025640A000A00257500363A207768656E
:10076000656C5F74696D655F746F5F6D61783A2069
:10077000000A00257500353A20776865656C5F6D65
:1007800061785F73706565643A20000A0025750022
:10079000343A2074696D655F746F5F6D61783A20DB
:1007A000000A00257500333A206D61785F7370652B
:1007B00065643A20000A00257500323A20696E749B
:1007C000657276616C286D73293A20000A002575E0
:1007D00000313A2064656C6179282A31306D7329C3
:1007E0003A20000A092D2056616C756573202D0A88
:1007F000004D3E004D25643E20003F00736574208F
:1008000064656661756C740A00433E200077686514
:1008100072652064656C74613A20637572736F72DF
:100820003D25642C20776865656C3D25640A536519
:100830006520687474703A2F2F656E2E77696B6926
:1008400070656469612E6F72672F77696B692F4DD0
:100850006F7573655F6B6579730A000A092D204D0A
:100860006F7573656B6579202D0A4553432F713A77
:1008700009717569740A313A0964656C6179282ACD
:1008800031306D73290A323A09696E746572766186
:100890006C286D73290A333A096D61785F7370654E
:1008A00065640A343A0974696D655F746F5F6D61E0
:1008B000780A353A09776865656C5F6D61785F73B2
:1008C000706565640A363A09776865656C5F7469B6
:1008D0006D655F746F5F6D61780A0A703A097072B6
:1008E000696E742076616C7565730A643A09736584
:1008F000742064656661756C74730A75703A092BAF
:10090000310A646F776E3A092D310A706775703A53
:10091000092B31300A7067646F776E3A092D3130D8
:100920000A0A7370656564203D2064656C746120FB
:100930002A206D61785F7370656564202A202872B3
:100940006570656174202F2074696D655F746F5FD9
:100950006D6178290A003F004D3E2000433E200093
:100960004C25640A000A092D20436F6E736F6C6575
:10097000202D0A4553432F713A09717569740A6D28
:100980003A096D6F7573656B65790A000A092D2048
:100990004D61676963202D0A643A09646562756771
:1009A0000A783A096465627567206D6174726978C6
:1009B0000A6B3A096465627567206B6579626F61DD
:1009C00072640A6D3A096465627567206D6F7573AC
:1009D000650A763A0976657273696F6E0A733A0929
:1009E0007374617475730A633A09636F6E736F6C25
:1009F00065206D6F64650A302D343A096C61796544
:100A000072302D34284631302D4634290A50617514
:100A1000733A09626F6F746C6F616465720A653A4C
:100A200009656570726F6D0A6E3A094E4B524F0A36
:100A30007A3A09736C656570204C4544207465737F
:100A4000740A000A002575002E6E6B726F3A200042
:100A50000A002575002E737761705F6261636B73A6
:100A60006C6173685F6261636B73706163653A2088
:100A7000000A002575002E737761705F67726176DA
:100A8000655F6573633A20000A002575002E6E6F5E
:100A90005F6775693A20000A002575002E7377613B
:100AA000705F72616C745F726775693A20000A004A
:100AB0002575002E737761705F6C616C745F6C6775
:100AC00075693A20000A002575002E636170736C09
:100AD0006F636B5F746F5F636F6E74726F6C3A20DD
:100AE000000A002575002E737761705F636F6E7466
:100AF000726F6C5F636170736C6F636B3A20000A96
:100B00000025303258006B65796D61705F636F6EE0
:100B10006669672E7261773A20000A002575002EFB
:100B20006D6F7573653A20000A002575002E6B65A0
:100B300079626F6172643A20000A002575002E6D9B
:100B400061747269783A20000A002575002E656E7E
:100B500061626C653A20000A0025303258006465F5
:100B60006275675F636F6E6669672E7261773A20A0
:100B7000000A0025750064656661756C745F6C61C0
:100B80007965723A20003F004E4B524F3A206F6613
:100B9000660A004E4B524F3A206F6E0A0074696D20
:100BA00065725F636F756E743A202530346C580A35
:100BB000006B6579626F6172645F6E6B726F3A2071
:100BC00025580A006B6579626F6172645F69646CB5
:100BD000653A2025580A006B6579626F6172645F1F
:100BE00070726F746F636F6C3A2025580A00686FDB
:100BF00073745F6B6579626F6172645F6C65647357
:100C000028293A2025580A000A092D2053746174B6
:100C10007573202D0A004743433A20342E382E3175
:100C2000204156522D4C4942433A20312E382E3025
:100C300073766E204156525F415243483A206176A6
:100C400072350A004F5054494F4E533A204C554686
:100C50004120424F4F544D41474943204D4F55533A
:100C6000454B45592045585452414B455920434F17
:100C70004E534F4C4520434F4D4D414E44204E4B1B
:100C8000524F203531320A004255494C443A203007
:100C9000663263373733202832313A33303A3133D2
:100CA000204A616E2020382032303136290A005621
:100CB00049443A20307846454544284572676F4498
:100CC0006F7820455A29205049443A2030783133F2
:100CD0003037284572676F446F7820455A2920566F
:100CE00045523A203078303030310A004445534381
:100CF0003A20742E6D2E6B2E206B6579626F6172B7
:100D000064206669726D7761726520666F72204536
:100D100072676F646F780A000A092D205665727336
:100D2000696F6E202D0A000A6D6F7573653A206F2A
:100D300066660A000A6D6F7573653A206F6E0A0069
:100D40000A6B6579626F6172643A206F66660A00A9
:100D50000A6B6579626F6172643A206F6E0A000AED
:100D60006D61747269783A206F66660A000A6D6177
:100D7000747269783A206F6E0A000A64656275675A
:100D80003A206F6E0A000A64656275673A206F66E2
:100D9000660A000A0A626F6F746C6F616465722E76
:100DA0002E2E2000433E20006565636F6E666967E6
:100DB0003A0A00536C656570204C45442074657395
:100DC000740A0000000000000000000000000102A2
:100DD00004060A0F17202C3A4A5D71879DB3C7DAC3
:100DE000E9F5FCFFFCF5E9DAC7B39D87715D4A3A86
:100DF0002C20170F0A06040201000000000000006A
:100E00000000000011241FBECFEFDAE0DEBFCDBF2F
:100E100004B603FE24C08091F9019091FA01A091DB
:100E2000FB01B091FC018730904BA740B04BB9F467
:100E30001092F9011092FA011092FB011092FC013C
:100E400014BE84B7877F84BF88E10FB6F89480937F
:100E50006000109260000FBEE0E0FFE3099511E032
:100E6000A0E0B1E0E6EAFBE502C005900D92AA33EE
:100E7000B107D9F721E0AAE3B1E001C01D92A93F73
:100E8000B207E1F70E94970F0C94D12D0C9400004B
:100E9000FF93EF93E0913A01F0913B01309709F015
:100EA0000995EF91FF910895FC018591803011F033
:100EB000EFDFFBCF0895FF27E0E230E247FF0CC0F1
:100EC000419597FF09C0EDE26095709580959095EA
:100ED000611D711D811D911D27FF02C0219530E309
:100EE00050E2AA27660F771F881F991FAA1FA41711
:100EF00010F0A41B63955A95A9F7AA3008F0A95FD2
:100F0000A05DAF93F395611571058105910541F7DA
:100F1000ED3211F4EF93F395F21718F43F93F39534
:100F2000FBCF8F91B5DFFA95E1F70895E991F9913B
:100F30008591803021F0853219F0AADFF9CF08952C
:100F400020E0E89455915532C1F3503311F4689480
:100F500055915A3348F4505390F3220F022E220F2A
:100F6000220F200D250FF4CF0EF421958991999130
:100F7000533619F3533729F1533559F1BC018827FA
:100F80009927E8945C3621F4899199916894559158
:100F9000543639F446EF7EF077FF0DC08FEF9FEFA8
:100FA0000AC055374AE039F0583540E121F0523651
:100FB00042E009F00895FF93EF937DDFEF91FF91F9
:100FC000B7CFFF93EF93FC0181918030B9F360DFDD
:100FD000FBCFFF93EF9368DFF1CFDF93CF93CDB7D4
:100FE000DEB72596A3DFCF91DF91089561110BC085
:100FF000FC018281882321F085EE0E94651603C0E2
:1010000085EE0E942D1780E090E00895089560918C
:10101000BC017091BD018091BE019091BF010E9401
:10102000102156985E9825982D9826982E982798E6
:101030002F98813019F0823021F00895259A2D9A49
:101040000895269A2E9A089587E098E0892B11F04A
:101050000E94070880E090E0089556985E982598D1
:101060002D9826982E9827982F988FEF90E09093A0
:1010700089008093880090938B0080938A009093DE
:101080008D0080938C00259A2D9A2FEF80E792E0B7
:10109000215080409040E1F700C00000269A2E9A2F
:1010A0002FEF80E792E0215080409040E1F700C0B0
:1010B0000000279A2F9A2FEF80E792E0215080407E
:1010C0009040E1F700C0000025982D982FEF80E7B1
:1010D00092E0215080409040E1F700C00000269847
:1010E0002E982FEF80E792E0215080409040E1F76A
:1010F00000C0000027982F9856985E9825982D9844
:1011000026982E9827982F98089589EA8093800032
:1011100089E08093810024982C983F988AB18F743D
:101120008AB96E98479A8BB1806B8BB9769A0E9478
:101130002D0886E098E0892B11F00E94060880E0D7
:1011400090E0089580E28093000180913C0181113C
:101150000EC00E94F10881E080933C012FEF83EDE7
:1011600090E3215080409040E1F700C0000080E40F
:101170000E94F7088093000181112EC00E9421096E
:1011800080930001811128C00E94210980930001F1
:10119000811122C08FE30E942109809300018111F7
:1011A0001BC00E94190980E40E94F7088093000187
:1011B000811112C08CE00E942109809300018111ED
:1011C0000BC00E94210980930001811105C08FE3AB
:1011D0000E942109809300010E9419098091000159
:1011E00008951092B9008AE08093B800089594EAB7
:1011F0009093BC009091BC0097FFFCCF9091B900F8
:10120000987F983021F0903111F081E0089580931B
:10121000BB0084E88093BC008091BC0087FFFCCFBA
:101220008091B900887F883111F0803471F780E0B7
:10123000089584E98093BC008091BC0084FDFCCFBC
:1012400008958093BB0084E88093BC008091BC002B
:1012500087FFFCCF9091B900987F81E0983209F424
:1012600080E0089584E88093BC008091BC0087FFF3
:10127000FCCF8091BB00089580910001811115C0C1
:1012800080E40E94F7088093000181110CC082E184
:101290000E94210980930001811105C08FEF0E94F7
:1012A0002109809300010E94190984B1807F84B9CB
:1012B00085B1807F85B98AB1837F8AB98BB1837FFD
:1012C0008BB93E98469808950E94A2088093000129
:1012D0000E943C0980B38C7080BB81B3836F81BB5B
:1012E000ECE4F1E0AEE3B1E011921D9281E0EA3569
:1012F000F807D1F785E898E0892B11F00C94850860
:1013000008959F92AF92BF92CF92DF92EF92FF9299
:101310000F931F93CF93DF93809100018823E1F017
:1013200080913D018F5F80933D01811115C082E462
:1013300093E00E9454070E94A20880930001882332
:1013400029F088E293E00E94540706C084E193E00C
:101350000E9454070E942D080EE311E0C0E0D0E087
:10136000BB24B39482E0A82ECC24C394D12C25E0D6
:10137000E22E23E0F22EC73000F5809100018111AA
:1013800062C080E40E94F70880930001811112C0BE
:1013900082E10E9421098093000181110BC0C601E6
:1013A0000C2E01C0880F0A94EAF780950E9421094B
:1013B000809300010E94190946C0CA30A1F028F4A8
:1013C000C83059F0C93061F005C0CC3089F070F0F8
:1013D000CD3089F0209A289810C0219A29980DC004
:1013E000229A2A980AC0239A2B9807C0529A01C0C1
:1013F000539A5B9802C03E9A4698E0EAEA95F1F764
:101400008FB1799985C092E081708B25892B7C9B67
:1014100002C090E001C094E0892B7D9B02C090E067
:1014200001C098E0892B7E9B02C090E001C090E152
:10143000892B9FB19095991F9927991F9295990F84
:10144000907E892B10C080910001811176C080E4CC
:101450000E94F70880930001882309F45BC0912C57
:101460000E941909892DF8019081981739F180831C
:1014700080910101882301F18091D70180FF04C090
:101480008AE093E00E9454078091D70180FF0CC04E
:10149000809101011F928F93FF92EF920E94ED07BE
:1014A0000F900F900F900F908091D70180FF04C094
:1014B00083E093E00E945407A09201010E943C093E
:1014C00021960F5F1F4FCE30D10509F054CF809188
:1014D00001018823B1F0815080930101882339F004
:1014E0008FE99FE00197F1F700C000000AC0ACE46B
:1014F000B1E0EEE3F1E081918D9391E0EC34F907F6
:10150000D1F784E298E0892BD1F00E94240817C01B
:1015100090E07ACF83E10E9421098093000181113C
:101520009ECF81E40E94F70880930001811197CF3C
:101530000E943209982E909493CF80E094CF81E05E
:10154000DF91CF911F910F91FF90EF90DF90CF909F
:10155000BF90AF909F900895E82FF0E0E45BFE4FBE
:1015600080810895CF92DF92EF92FF920F931F93A5
:10157000CF93DF938CEE92E00E9454073CE4E32E7D
:1015800031E0F32EC0E0D0E047EEC42E42E0D42E8E
:101590000EED12E0DF93CF93DF92CF920E94ED0722
:1015A00084EE92E00E945407F70181917F0190E060
:1015B0000E9475219F938F931F930F930E94ED07B5
:1015C0008CED92E00E94540721968DB79EB7089645
:1015D0000FB6F8949EBF0FBE8DBFCE30D105D1F6A9
:1015E000DF91CF911F910F91FF90EF90DF90CF90FF
:1015F00008958B3B910578F4883A910540F5853A3A
:101600009105D0F48430910508F0B1C08130910586
:1016100009F4ADC06BC0803E910508F467C0883EF8
:10162000910508F4A4C09C01205F310920313105E7
:1016300008F05CC090650895853A910509F459C099
:10164000863A910509F458C083E890E40895883AF1
:10165000910509F454C0893A910509F453C08A3AB6
:10166000910509F452C08B3A910509F451C08C3AA6
:10167000910509F450C08D3A910509F44FC0803BA3
:10168000910509F44EC08E3A910509F44DC08F3A88
:10169000910509F44CC0813B910509F44BC0823B94
:1016A000910509F44AC0833B910509F449C0843B84
:1016B000910509F448C0853B910509F447C0863B74
:1016C000910509F446C0873B910509F445C0883B64
:1016D000910509F444C0893B910509F443C08A3B54
:1016E000910509F042C08AE296E4089580E090E016
:1016F000089581E890E4089582E890E4089582EEE8
:1017000094E4089589EE94E408958AEE94E40895AB
:1017100085EB94E4089586EB94E4089587EB94E4D4
:1017200008958CEC94E408958DEC94E4089583E896
:1017300095E408958AE895E4089582E995E408958A
:1017400084E995E4089581E296E4089583E296E4BD
:10175000089584E296E4089585E296E4089586E289
:1017600096E4089587E296E4089580E094E408956D
:10177000089596E0799FF001112494E5899FE00D8A
:10178000F11D1124E60FF11DEE0FFF1FEC51FF4F6D
:10179000859194910895880F991F805A9040FC017B
:1017A000859194910895880F991F80529F4FFC0155
:1017B00085919491089526E0729FF001112444E5EB
:1017C000849FE00DF11D1124E60FF11DEE0FFF1FA8
:1017D000EC51FF4F25913491C9019A9581159F4194
:1017E00010F4C9010895C90190528115904128F45F
:1017F000C9019F700E94D30B0895C90190538115B0
:10180000904120F4C9019927906C0895211580E535
:10181000380769F40E94A01A9FEF24E34CE091502E
:1018200020404040E1F700C000000C9431222130FC
:1018300080E5380751F48CE593E00E9454078091CD
:10184000D70181608093D7010895C9019055811512
:10185000904108F050C0832F99278F7099278130CD
:101860009105D9F4A9014370552702C0880F991F2B
:101870004A95E2F79C68A90164E0440F551F6A95F8
:10188000E1F744275370842B952B73E0220F331F0D
:101890007A95E1F7207633271DC08230910529F42F
:1018A000922F8827816F906A089583309105A9F45B
:1018B000A9014370552781E090E002C0880F991F6D
:1018C0004A95E2F79C6843E0220F331F4A95E1F7FF
:1018D000207E3770822B932B08950497F1F4A90191
:1018E0004370552781E090E002C0880F991F4A9508
:1018F000E2F79A68E8CFC90190578115904120F42A
:10190000C9019F7090620895C90190588115904156
:1019100020F4C9019F70906A0895203E3105E0F4DB
:10192000203C310558F52133310509F470C048F4E5
:101930002932310509F464C02A32310509F46EC038
:1019400074C029333105F1F022383105D9F025333F
:10195000310509F44EC069C0233E310589F138F4E0
:10196000203E3105C1F0223E3105E1F05EC0263E49
:10197000310569F1273E3105A9F157C0C9010E941F
:10198000CB0B08958091EA0180FD02C081FF4DC01C
:1019900080EE90E04BC08091EA0180FFF9CF89E3AF
:1019A00090E044C08091EA0182FF0EC08091EA017C
:1019B00084FF03C080E090E039C083EE90E036C041
:1019C0008091EA0182FFF2CF82EE90E02FC08091F9
:1019D000EA0183FF0BC08091EA0184FDEBCF87EE23
:1019E00090E024C08091EA0183FFF5CF86EE90E07D
:1019F0001DC08091EA0185FF07C089E290E016C012
:101A00008091EA0185FFF9CF85E390E00FC08091D6
:101A1000EA0186FF07C08AE290E008C08091EA01EF
:101A200086FFF9CF81E390E001C0C9010E94F90A65
:101A30000895089580916D0108959FB7F8941092CC
:101A40005C019FBF9091F001943009F058C09091D3
:101A5000E9009F702091EC0020FF02C020E801C047
:101A600020E0292B94E09093E9009091EB0090FF07
:101A700043C09091EE0097FF3FC090915A01992387
:101A800021F09091E80095FF37C010925A0196E03E
:101A90003091E80035FD15C03091F001343061F52A
:101AA0003091EB0035FD28C0915021F481E0809306
:101AB0005A0122C0EFE9FFE03197F1F700C00000C2
:101AC000E7CF8093F1008091E80085FD0AC0809106
:101AD000E80080FFFCCF8091E8008E778093E800DB
:101AE00006C08FB7F89491E090935C018FBF2F7080
:101AF0002093E90080E008952F702093E9008FEF94
:101B00000895CF93DF9300D01F92CDB7DEB7209119
:101B1000F001243019F523E029839B838A832093E5
:101B2000E9008FEF9091E800815095FD06C095ED9A
:101B30009A95F1F700008111F5CF8091E80085FFBB
:101B40000DC040E050E063E070E0CE0101960E94DD
:101B500050108091E8008E778093E8000F900F90EE
:101B60000F90DF91CF910895CF93DF9300D01F9214
:101B7000CDB7DEB72091F001243021F522E0298392
:101B80009B838A8383E08093E9008FEF9091E80044
:101B9000815095FD06C095ED9A95F1F700008111F1
:101BA000F5CF8091E80085FF0DC040E050E063E094
:101BB00070E0CE0101960E9450108091E8008E776F
:101BC0008093E8000F900F900F90DF91CF910895D0
:101BD0002091F0012430F1F422E02093E9002FEF6E
:101BE0003091E800215035FD06C035ED3A95F1F70A
:101BF00000002111F5CF2091E80025FF0BC040E047
:101C000050E065E070E00E9450108091E8008E770F
:101C10008093E8000895CF93DF93EC018091F00169
:101C2000843009F047C080910C018823E1F0809155
:101C30000D018823C1F085E08093E9008FEF90913A
:101C4000E800815095FD06C095E19A95F1F70000F6
:101C50008111F5CF8091E80085FF2CC040E050E075
:101C600060E170E017C081E08093E9008FEF909110
:101C7000E800815095FD06C095ED9A95F1F70000BA
:101C80008111F5CF8091E80085FF14C040E050E05D
:101C900068E070E0CE010E9450108091E8008E77DD
:101CA0008093E80080E1FE01ADE5B1E001900D9286
:101CB0008A95E1F7DF91CF91089583E993E00E943F
:101CC00054078091EF01811109C00E94E2110E9426
:101CD0003F128091E20084608093E20008958FE8D3
:101CE00093E00E9454071092EF0108958BE893E06F
:101CF0000C94540787E893E00E9454070C94F22B4D
:101D000083E893E00E9454070E94CC210E94F82BA4
:101D10000E94DB140C94190D80915B018F5F8093FE
:101D20005B0162E30E94662D911135C010925B0148
:101D300080915C01882379F18091F001843049F52C
:101D40008091E9008F709091EC0090FF02C090E8C4
:101D500001C090E0982B84E08093E9008091EB0033
:101D600080FF14C08091EE0087FF10C08091E800D2
:101D700085FF03C01092F100F9CF8091E80080FF49
:101D800005C08091E8008E778093E8009F70909363
:101D9000E90010925C01089542E061EC81E00E944C
:101DA0005C1142E061EC82E00E945C1142E061EC77
:101DB00083E00E945C1142E261EC84E00E945C11CD
:101DC00042E161EC85E00C945C118091F20183307A
:101DD00009F455C030F4813071F0823009F48EC0BE
:101DE00008958A3009F47AC08B3009F460C08930D4
:101DF00009F09CC020C08091F101813A09F096C0A1
:101E00008091E800877F8093E8008091F5019091B0
:101E1000F601892B21F060E080E090E003C060E1F2
:101E20008DE591E070E00E9499108091E8008B7739
:101E30008093E80008958091F101813209F076C025
:101E40008091F5019091F601009719F0049709F03F
:101E50006DC08091E800877F8093E8008091E80062
:101E600082FD05C08091F0018111F8CF5FC08091A3
:101E7000F10080936D018091E8008B7753C08091D1
:101E8000F101813A09F052C08091F5019091F6017B
:101E9000892B09F04BC08091E800877F8093E80090
:101EA0008091E80080FFFCCF80910C0136C08091CA
:101EB000F1018132D9F58091F5019091F601892BDC
:101EC000A9F58091E800877F8093E8000E94911136
:101ED0008091F30180930C010C94A01A8091F10180
:101EE000813221F58091E800877F8093E8000E948D
:101EF00091118091F40180936E0108958091F10118
:101F0000813AA1F48091E800877F8093E800809176
:101F1000E80080FFFCCF80916E018093F1008091FA
:101F2000E8008E778093E8000C949111089584B7AF
:101F3000877F84BF88E10FB6F89480936000109289
:101F400060000FBE90E080E80FB6F89480936100C7
:101F5000909361000FBE0E9464150E94E2110E94DE
:101F60003F128091E20084608093E2008DE19DE069
:101F70000E940B2178940E94B9140E94661582E099
:101F800091E00E94D6140E94E02B82E793E00E9429
:101F900054078091F001853089F48EE693E00E9429
:101FA00054070E948F218091EE01882391F30E94B3
:101FB000B721882371F30E943A10EBCF0E94941549
:101FC000E8CF292F332723303105A9F06CF42130D5
:101FD000310509F442C02230310509F043C08DE8D3
:101FE00090E02BEC33E042C021323105C9F02232BF
:101FF000310519F137C099278130910541F08230C0
:10200000910541F0892B71F5E7ECF3E005C0EFEAAB
:10201000F3E002C0E7E9F3E0849190E09F0126C07D
:10202000653000F5E62FF0E0EE0FFF1FEB5DFE4F91
:102030002081318189E090E019C0653098F4E62F65
:10204000F0E0DF01AA0FBB1FA55EBE4F2D913C91B2
:10205000EA5EFE4F808190E009C082E190E028E5D1
:1020600034E004C080E090E020E030E0FA01318309
:102070002083089580E189BD82E189BD09B400FE15
:10208000FDCF8091D8008F7D8093D8008091E000B3
:1020900082608093E0008091E00081FDFCCF089594
:1020A000CF92DF92EF92FF920F931F93CF93DF9324
:1020B0007C018B01EA010E94B211811131C020978D
:1020C00031F088819981081B190BE80EF91EC12C8B
:1020D000D12C0115110519F18091E80085FD14C07E
:1020E0008091E8008E778093E800209741F0888106
:1020F00099818C0D9D1D9983888385E011C00E9474
:10210000B211882331F30CC0F70181917F018093D4
:10211000F10001501109FFEFCF1ADF0ADACF80E09A
:10212000DF91CF911F910F91FF90EF90DF90CF90B3
:1021300008952091F7013091F8012617370748F0EC
:102140006115710539F42091E8002E772093E8009D
:1021500001C0B901FC0120E061157105B9F1809160
:10216000F001882309F440C0853009F43FC0809114
:10217000E80083FD3DC08091E80082FF06C08091A9
:10218000E80082FF26C080E008958091E80080FF8B
:10219000E3CF2091F3008091F20090E0922B611543
:1021A000710551F08830910538F421912093F100A8
:1021B000615071090196F3CF21E0089709F020E002
:1021C0008091E8008E778093E800C6CF2111C7CFB9
:1021D000D6CF8091F001882339F0853039F0809195
:1021E000E80083FFCCCF04C082E0089583E0089527
:1021F00081E008952091F7013091F8012617370703
:1022000048F06115710539F42091E8002E7720938C
:10221000E80001C0B901FC0120E061157105C1F1C0
:102220008091F001882309F441C0853009F440C051
:102230008091E80083FD3EC08091E80082FF06C0E7
:102240008091E80082FF27C080E008958091E80037
:1022500080FFE3CF2091F3008091F20090E0922B79
:102260006115710559F08830910540F4249120934F
:10227000F1003196615071090196F2CF21E0089783
:1022800009F020E08091E8008E778093E800C5CFC8
:102290002111C6CFD5CF8091F001882339F0853048
:1022A00039F08091E80083FFCBCF04C082E008952D
:1022B00083E0089581E00895982F973058F5909322
:1022C000E900981739F07091EC002091ED005091E1
:1022D000F00003C0242F762F50E021FF19C0309169
:1022E000EB003E7F3093EB003091ED003D7F30936B
:1022F000ED003091EB0031603093EB007093EC0017
:102300002093ED005093F0002091EE0027FF07C0CE
:102310009F5FD3CF8F708093E90081E0089580E0C4
:1023200008958091F10187FD05C08091E80080FF4C
:102330000EC012C08091E80082FD05C08091F001BE
:102340008111F8CF08958091E8008B7708C08091C3
:10235000F0018111EACF08958091E8008E77809393
:10236000E80008958091E4009091E50045E6209111
:10237000EC0020FF21C02091E80020FD21C0209129
:10238000F001222389F0253089F02091EB0025FD12
:102390000FC02091E4003091E5002817390739F388
:1023A000415041F0C901E3CF82E0089583E00895F0
:1023B00081E0089584E008952091E80022FFDFCFB6
:1023C00080E008950E9450120E945812E0EEF0E062
:1023D000808181608083E8EDF0E080818F77808369
:1023E00019BCA7EDB0E08C918E7F8C9380818F7E9D
:1023F00080831092EF0108950F931F93CF93DF9383
:102400000E9450120E945812C8EDD0E088818F7748
:10241000888388818068888388818F7D888319BCC0
:102420001092F0011092EC011092EE011092ED0169
:1024300000EE10E0F80180818B7F808388818160CD
:10244000888342E060E080E00E945C11E1EEF0E011
:1024500080818E7F8083E2EEF0E0808181608083E6
:10246000808188608083F80180818E7F808388816D
:1024700080618883DF91CF911F910F910895E8EDDE
:10248000F0E080818F7E8083E7EDF0E080818160E5
:10249000808384E082BF81E08093EF010C94FC1183
:1024A000E8EDF0E080818E7F80831092E200089555
:1024B0001092DA001092E10008951F920F920FB669
:1024C0000F9211242F933F934F935F936F937F93BA
:1024D0008F939F93AF93BF93EF93FF938091E1000E
:1024E00082FF0BC08091E20082FF07C08091E10073
:1024F0008B7F8093E1000E948C0E8091DA0080FF38
:102500001FC08091D80080FF1BC08091DA008E7FB1
:102510008093DA008091D90080FF0DC080E189BDF1
:1025200082E189BD09B400FEFDCF81E08093F00116
:102530000E945D0E05C019BC1092F0010E946F0E42
:102540008091E10080FF19C08091E20080FF15C0FA
:102550008091E2008E7F8093E2008091E2008061B2
:102560008093E2008091D80080628093D80019BCEB
:1025700085E08093F0010E947A0E8091E10084FF53
:1025800030C08091E20084FF2CC080E189BD82E1EF
:1025900089BD09B400FEFDCF8091D8008F7D809366
:1025A000D8008091E1008F7E8093E1008091E2006D
:1025B0008F7E8093E2008091E20081608093E20050
:1025C0008091EC01882311F084E007C08091E30042
:1025D00087FF02C083E001C081E08093F0010E9488
:1025E000800E8091E10083FF29C08091E20083FF8B
:1025F00025C08091E100877F8093E10082E0809395
:10260000F0011092EC018091E1008E7F8093E10057
:102610008091E2008E7F8093E2008091E2008061F1
:102620008093E20042E060E080E00E945C118091D3
:10263000F00088608093F0000E94760EFF91EF9189
:10264000BF91AF919F918F917F916F915F914F91CA
:102650003F912F910F900FBE0F901F9018951F92D2
:102660000F920FB60F9211242F933F934F935F93C6
:102670006F937F938F939F93AF93BF93CF93EF937A
:10268000FF93C091E900CF708091EC001092E900B7
:102690008091F000877F8093F00078940E946B1304
:1026A0001092E9008091F00088608093F000C09360
:1026B000E900FF91EF91CF91BF91AF919F918F91E1
:1026C0007F916F915F914F913F912F910F900FBE2E
:1026D0000F901F9018951F93CF93DF93CDB7DEB760
:1026E000AA970FB6F894DEBF0FBECDBFE1EFF1E0C1
:1026F0008091F100819321E0E93FF207C9F70E9440
:10270000E50E8091E80083FF1CC12091F10130911A
:10271000F201832F90E08A30910508F012C1FC018C
:10272000EA5AFF4F0C94862D203881F0223809F0A8
:1027300008C18091F5018F708093E9008091EB00D2
:1027400085FB882780F91092E90006C08091ED0191
:102750009091EE01911182609091E800977F9093A3
:10276000E8008093F1001092F100C5C0822F8D7FA8
:1027700009F0E7C0222319F0223061F0E2C0809115
:10278000F301813009F0DDC0333009F080E080933F
:10279000EE0128C08091F301811124C02091F50140
:1027A0002F7009F4CEC02093E9008091EB0080FFE8
:1027B00019C08091EB00333011F4806211C0806148
:1027C0008093EB0081E090E0022E01C0880F0A9414
:1027D000EAF78093EA001092EA008091EB008860AB
:1027E0008093EB001092E9008091E800877F86C01B
:1027F0002111A7C01091F3011F778091E300807829
:10280000812B8093E3008091E800877F8093E8002C
:102810000E9491118091E80080FFFCCF8091E3003D
:1028200080688093E300112311F083E001C082E00F
:102830008093F00186C02058223008F082C0809139
:10284000F3019091F4018C3D23E0920779F583E048
:102850008A838AE289834FB7F894DE01139620E0D9
:102860003EE051E2E32FF0E050935700E49120FF67
:1028700003C0E295EF703F5FEF708E2F90E0EA307B
:1028800010F0C79601C0C0968D939D932F5F2431A1
:1028900049F74FBF8091E800877F8093E8006AE2A4
:1028A00070E0CE0101960E94991014C0AE014F5FF6
:1028B0005F4F6091F5010E94E10F009709F441C05C
:1028C0002091E800277F2093E800BC0189819A814C
:1028D0000E94FA108091E8008B778093E80031C065
:1028E000203879F58091E800877F8093E800809117
:1028F000EC018093F1008091E8008E778093E800EE
:102900000E9491111EC021111CC09091F3019230C0
:10291000C0F48091E800877F8093E8009093EC01F9
:102920000E9491118091EC01811104C08091E3001B
:1029300087FF02C084E001C081E08093F0010E9423
:10294000CC0E8091E80083FF0AC08091E800877F69
:102950008093E8008091EB0080628093EB00AA9660
:102960000FB6F894DEBF0FBECDBFDF91CF911F91A0
:102970000895CF938091F0018823B1F08091E90010
:102980008F709091EC0090FF02C090E801C090E041
:10299000C92FC82B1092E9008091E80083FD0E94A6
:1029A0006B13CF70C093E900CF9108959093740199
:1029B000809373010895E0917301F0917401309751
:1029C00021F00190F081E02D099480E00895FF92BC
:1029D0000F931F93CF93DF938C01E0917301F091DC
:1029E0007401309799F10280F381E02D099580916F
:1029F000D70182FF2BC080FF04C08DE895E00E94C4
:102A00005407E80180E1F82E07E815E08091D7012E
:102A100080FF0BC088811F928F931F930F930E949A
:102A2000ED070F900F900F900F90FA942196F110F0
:102A3000EDCF8091D70180FF09C085E895E0DF9157
:102A4000CF911F910F91FF900C945407DF91CF917C
:102A50001F910F91FF900895E0917301F09174011F
:102A6000309721F00480F581E02D0994089520919C
:102A70007101309172018217930771F09093720186
:102A800080937101E0917301F0917401309721F00E
:102A90000680F781E02D0994089520916F0130910F
:102AA00070018217930771F09093700180936F010A
:102AB000E0917301F0917401309721F00084F18569
:102AC000E02D0994089508950C9463150E94CE2179
:102AD0000E9464090C949422CF93C82F8091D7014F
:102AE00082FF1EC080FF04C086EA95E00E94540762
:102AF0008091D70180FF0CC01F92CF9321EA35E06F
:102B00003F932F930E94ED070F900F900F900F901F
:102B10008091D70180FF04C08FE995E00E9454079F
:102B20008C2FCF910C94190DCF92DF92EF92FF92E0
:102B30000F931F93CF93DF93CDB7DEB72B970FB6CD
:102B4000F894DEBF0FBECDBF0E94810936E7E32EA9
:102B500031E0F32E00E010E0C02E802F0E94AC0A7E
:102B6000F701D1907F01D826B1F40F5F1F4F0E30CF
:102B7000110591F78FEF89838A831B820E94D721E9
:102B80008160782F9D838C8349815A816B818D81EF
:102B90000E94371641C09091D70191FF04C08B87E6
:102BA0000E94B20A8B8520E030E04D2D50E0922F3C
:102BB000BA01022E02C0759567950A94E2F760FF8C
:102BC00025C02E83CF82EE24E394F12C02C0EE0CBC
:102BD000FF1C9A95E2F790E08E219F2121E0892B3E
:102BE00009F420E028870E94D7218160782F9A87F6
:102BF00089874E815F8168858A850E943716F80132
:102C0000EA58FE4F80818E25808306C02F5F3F4F9C
:102C10002630310561F6A9CF0E9402261091750178
:102C20000E94DB141817A1F00E94DB148093750139
:102C30002B960FB6F894DEBF0FBECDBFDF91CF91BC
:102C40001F910F91FF90EF90DF90CF900C946C1537
:102C50002B960FB6F894DEBF0FBECDBFDF91CF919C
:102C60001F910F91FF90EF90DF90CF900895CF9339
:102C7000DF93CDB7DEB72B970FB6F894DEBF0FBE4C
:102C8000CDBF4F83588769877A878B87DE0111967E
:102C900086E0FD0111928A95E9F785E0FE013796FD
:102CA00001900D928A95E1F749815A816B817C816F
:102CB0008D819E810E946C1D2B960FB6F894DEBF0D
:102CC0000FBECDBFDF91CF910895CF93C82F88233A
:102CD00009F4C1C0823859F40E94DB1481FDBBC0E5
:102CE00089E30E9409200E94E52089E30CC0833813
:102CF00079F40E94DB1480FDAEC083E50E940920B8
:102D00000E94E52083E50E945A20CF910C94E52093
:102D1000843859F40E94DB1482FD9DC087E40E9430
:102D200009200E94E52087E4EECF8CEF8C0F813ADA
:102D300048F48C2F0E948B2A81118DC08C2F0E9409
:102D40000920E3CF80E28C0F883048F4C77081E01F
:102D500001C0880FCA95EAF70E94AC20D6CF8BE558
:102D60008C0F833078F4C53A29F0C63A31F482E802
:102D700090E005C081E890E002C083E890E0CF9148
:102D80000C94371588E58C0F833108F064C0C83A7D
:102D900039F1C93A41F1CA3A49F1CB3A51F1CC3A49
:102DA00059F1CD3A61F1C03B69F1CE3A71F1CF3AB8
:102DB00079F1C13B81F1C23B89F1C33B91F1C43B45
:102DC00099F1C53BA1F1C63BA9F1C73BB1F1C83BA5
:102DD000B9F1C93BC1F1CA3BC9F58AE292E038C0FA
:102DE00082EE90E035C089EE90E032C08AEE90E04D
:102DF0002FC085EB90E02CC086EB90E029C087EBDC
:102E000090E026C08CEC90E023C08DEC90E020C0D8
:102E100083E891E01DC08AE891E01AC082E991E060
:102E200017C084E991E014C081E292E011C083E20E
:102E300092E00EC084E292E00BC085E292E008C00E
:102E400086E292E005C087E292E002C080E090E076
:102E5000CF910C944D15CF910895882309F44BC060
:102E6000823859F40E94DB1481FF45C089E30E9437
:102E700009200E94E52089E30CC0833871F40E9488
:102E8000DB1480FF38C083E50E9409200E94E52002
:102E900083E50E945A200C94E520843859F40E945E
:102EA000DB1482FF28C087E40E9409200E94E520ED
:102EB00087E4EFCF9CEF980F913A58F390E2980F88
:102EC000983050F4877091E001C0990F8A95EAF725
:102ED000892F0E94B220DFCF9BE5980F933020F41A
:102EE00080E090E00C943715885A833120F480E01C
:102EF00090E00C944D150895882321F00E94AC2099
:102F00000C94E5200895882321F00E94B2200C94AF
:102F1000E5200895CF92DF92EF92FF920F931F93D7
:102F2000CF93DF93CDB7DEB728970FB6F894DEBF07
:102F30000FBECDBF8C0185E0F801DE011196019036
:102F40000D928A95E1F7F80140813181F280258167
:102F500022952F7083819481892B31F03F3F31F48A
:102F600081E04F3F19F403C081E001C080E080FDA3
:102F7000C6C249833A8389819A812F830E94C71FE1
:102F80009E8388870E94C61F0E94991E4E81E42F4F
:102F9000E295EF70F0E0E05AFF4F2F8168850C94C6
:102FA000862D842F807F142F1F70882311F0129597
:102FB000107FFF2059F0112309F456C2812F688732
:102FC0000E94BC200E94E52068854EC2862F0E9488
:102FD0002D17112309F493C2812F0E94C220289635
:102FE0000FB6F894DEBF0FBECDBFDF91CF911F911A
:102FF0000F91FF90EF90DF90CF900C94E520342F4D
:10300000307F842F8F70303211F08295807F66235D
:1030100019F0613019F12CC0FF20B1F0222309F41E
:1030200094C1213009F091C128960FB6F894DEBF03
:103030000FBECDBFDF91CF911F910F91FF90EF9009
:10304000DF90CF900C94CC20222319F0213009F48A
:1030500056C28E830E94CF208E818AC1FF2021F02C
:10306000263008F04CC271C1253008F048C280C13A
:10307000FF2021F0222309F468C1F6C1222309F4BC
:1030800077C106C2242F26952695237030E021159E
:10309000310521F021303105C9F031C2FF2021F086
:1030A000862F942F937002C080E090E028960FB690
:1030B000F894DEBF0FBECDBFDF91CF911F910F916E
:1030C000FF90EF90DF90CF900C943715FF2021F008
:1030D000862F942F937002C080E090E028960FB660
:1030E000F894DEBF0FBECDBFDF91CF911F910F913E
:1030F000FF90EF90DF90CF900C944D15862FFF201E
:1031000019F00E94882402C00E94F02428960FB66D
:10311000F894DEBF0FBECDBFDF91CF911F910F910D
:10312000FF90EF90DF90CF900C947525842F8370E3
:1031300009F076C0F110E3C1262F2295269527705D
:10314000220F220F862F8F70C82ED12CE12CF12C4C
:10315000022E04C0CC0CDD1CEE1CFF1C0A94D2F71E
:1031600064FF10C06FE070E080E090E004C0660F84
:10317000771F881F991F2A95D2F7609570958095C3
:10318000909503C060E070E0CB01242F2695269532
:103190002370422F50E042305105D1F043305105A9
:1031A00059F16C297D298E299F294130510541F122
:1031B00028960FB6F894DEBF0FBECDBFDF91CF913A
:1031C0001F910F91FF90EF90DF90CF900C94BE1E57
:1031D0006C297D298E299F2928960FB6F894DEBF89
:1031E0000FBECDBFDF91CF911F910F91FF90EF9058
:1031F000DF90CF900C94D81E0E94BE1EC701B6016E
:1032000028960FB6F894DEBF0FBECDBFDF91CF91E9
:103210001F910F91FF90EF90DF90CF900C94A41E20
:10322000FF2019F0842F817001C08695882309F44E
:1032300066C1262F229526952770220F220F862FF2
:103240008F70C82ED12CE12CF12C022E04C0CC0C96
:10325000DD1CEE1CFF1C0A94D2F764FF10C06FE067
:1032600070E080E090E004C0660F771F881F991F10
:103270002A95D2F7609570958095909503C060E08F
:1032800070E0CB01242F269526952370422F50E025
:1032900042305105D1F04330510559F16C297D2957
:1032A0008E299F294130510541F128960FB6F89497
:1032B000DEBF0FBECDBFDF91CF911F910F91FF9069
:1032C000EF90DF90CF900C94921F6C297D298E296E
:1032D0009F2928960FB6F894DEBF0FBECDBFDF91B1
:1032E000CF911F910F91FF90EF90DF90CF900C94B2
:1032F000AC1F0E94921FC701B60128960FB6F89422
:10330000DEBF0FBECDBFDF91CF911F910F91FF9018
:10331000EF90DF90CF900C94781F603FC9F118F4C4
:10332000603E50F49CC0623F09F461C008F44BC099
:10333000633F09F470C093C0162F1F70842F8F71E4
:10334000FF2099F00E94111F812F28960FB6F89444
:10335000DEBF0FBECDBFDF91CF911F910F91FF90C8
:10336000EF90DF90CF900C947C170E94321F812F3A
:1033700028960FB6F894DEBF0FBECDBFDF91CF9178
:103380001F910F91FF90EF90DF90CF900C948317D7
:10339000FF20A9F0253008F0B2C0842F8F71289645
:1033A0000FB6F894DEBF0FBECDBFDF91CF911F9156
:1033B0000F91FF90EF90DF90CF900C94571F263025
:1033C00008F09DC0EACFFF20A1F0842F8F712896CE
:1033D0000FB6F894DEBF0FBECDBFDF91CF911F9126
:1033E0000F91FF90EF90DF90CF900C94111FFF2072
:1033F00061F3842F8F7128960FB6F894DEBF0FBE4D
:10340000CDBFDF91CF911F910F91FF90EF90DF9093
:10341000CF900C94321FFF2091F0842F8F7128964B
:103420000FB6F894DEBF0FBECDBFDF91CF911F91D5
:103430000F91FF90EF90DF90CF900C94FC1E289698
:103440000FB6F894DEBF0FBECDBFDF91CF911F91B5
:103450000F91FF90EF90DF90CF900C94F21EFF2021
:10346000A1F0222309F4B1CF862F28960FB6F89445
:10347000DEBF0FBECDBFDF91CF911F910F91FF90A7
:10348000EF90DF90CF900C946516222309F4B1CF12
:10349000862F28960FB6F894DEBF0FBECDBFDF9102
:1034A000CF911F910F91FF90EF90DF90CF900C94F0
:1034B0002D174F70C8010E94F60728960FB6F89492
:1034C000DEBF0FBECDBFDF91CF911F910F91FF9057
:1034D000EF90DF90CF900C94191E4F70C801289682
:1034E0000FB6F894DEBF0FBECDBFDF91CF911F9115
:1034F0000F91FF90EF90DF90CF900C94B80B28962F
:103500000FB6F894DEBF0FBECDBFDF91CF911F91F4
:103510000F91FF90EF90DF90CF9008950E94C92007
:103520000E949E200E94E5200E94A3260E947525ED
:1035300080E090E00E94371580E090E00C944D15FB
:103540000E94B9200C948E1A0E94C71F292F229521
:103550002F7030E02C3031054CF42A3031056CF4FA
:10356000225031092230310590F407C02C3031054A
:1035700051F02F30310539F00AC0803E10F0803F05
:1035800031F481E0089593FB882780F9089580E065
:103590000895CF93DF9300D000D01F92CDB7DEB750
:1035A0000F900F900F900F900F90DF91CF91089593
:1035B000CF93DF9300D000D000D0CDB7DEB72696F2
:1035C0000FB6F894DEBF0FBECDBFDF91CF91089547
:1035D0001F93CF93DF93C091840116E08091850102
:1035E000C81799F0D0E01C9FF0011D9FF00D112429
:1035F000EA57FE4F408151816281738184819581B8
:103600000E94D81A2196C770E9CFDF91CF911F9100
:1036100008954091B6015091B7016091B801709141
:10362000B9018091BA019091BB010C94D81ACF9343
:103630008091BB0182958F7009F05FC08091B801C5
:10364000882309F45AC020918401A09185016091DA
:10365000B6017091B7018091B9019091BA0131E042
:103660006F3F09F030E0B32FC6E02A1709F445C0D8
:10367000009721F07F3F21F44B2F03C041E001C0B0
:1036800040E030E040FD35C0C29FF001C39FF00D27
:103690001124EA57FE4F418174132BC040816413FB
:1036A00028C04281411125C04381548148175907E0
:1036B00010F441505109481B590B483C5105C8F4BE
:1036C0008091BB018F7080618093BB0186E0829FF7
:1036D000F001839FF00D1124E557FE4F80818F701C
:1036E0008061808386EB91E00E948A17CF910C94D1
:1036F000E81A2F5F3F4F2770B8CFCF910895CF9230
:10370000DF92EF92FF920F931F93CF93DF93CDB78A
:10371000DEB762970FB6F894DEBF0FBECDBF8C0147
:1037200085E0F801DE011D9601900D928A95E1F782
:10373000D8014C9111965C91119712966C91129749
:103740001396ED90FC9014977091B601E091B7013B
:103750002091B9013091BA012115310531F0EF3FC7
:1037600031F481E07F3F19F403C081E001C080E0C3
:10377000B82FB170CB2E80FD6CC1D090B801DD2088
:1037800009F4F5C0F091BB01E216F30638F0C70169
:10379000821B930B883C910548F09BC02095309587
:1037A0002E0D3F1D283C310508F093C08F2F807FE0
:1037B00009F052C0E51314C0741312C0D62E611163
:1037C0000FC0FF70F061F093BB010E94091B86EBF4
:1037D00091E00E948A178091BB01F80185836CC13A
:1037E000EF2831F05F3F31F481E04F3F19F403C01F
:1037F00081E001C080E080FD03C081E0862701C038
:1038000080E0F82FF170FF2E80FF1CC080918401B2
:103810002091850136E0821709F428C190E0389F95
:10382000F001399FF00D1124EA57FE4F71815713B3
:1038300006C07081471303C07281671303C00196ED
:103840008770E9CFD62E662309F436C18091BB017B
:1038500081608093BB0153C0E51308C0741306C098
:10386000611104C0D8011596FC93AEC04D875E87E8
:103870008D859E856A8B0E94A41A6A89882329F106
:10388000D62E662311F12091BB01822F82958F7075
:1038900090E002970CF460C08091B6019091B7015E
:1038A00098878F831986FB86EA862C87CE01079638
:1038B00051C0E51731F14D875E878D859E856A8BF6
:1038C0000E94A41A6A8981112EC0C8010E948A1719
:1038D000A4C08F2F807F69F77E2DF98AE88A8989B5
:1038E0000E94C91A86EB91E00E948A17E6EBF1E08C
:1038F00086E0DF011D928A95E9F70E94091BD12C11
:10390000DBC07413D8CF6111D6CFD8011596FC93C4
:10391000C8010E948A17E6EBF1E086E0DF011D9204
:103920008A95E9F7C9C0D62E662379F22091BB01AA
:10393000822F82958F7090E0029774F08091B6018B
:103940009091B7019A8389831B82FD82EC822E833A
:10395000CE0101960E948A1786E0F801A6EBB1E03D
:1039600001900D928A95E1F70E94171B6FC0E21635
:10397000F30628F0C701821B930B9C0104C020951D
:1039800030952E0D3F1D283C310508F052C0D62E33
:10399000662309F49ACFE5132CC074132AC08091D2
:1039A000BB0180FD1DC0982F92959F70C9F0D80172
:1039B00015968C9315979F3039F09F5F9295907F65
:1039C0008F70892B15968C93C8010E948A1786E008
:1039D000F801A6EBB1E001900D928A95E1F736C0AF
:1039E00086E0F801A6EBB1E001900D928A95E1F72F
:1039F00063C04D875E878D859E850E94A41A8823AB
:103A000079F086E0F801A6EBB1E001900D928A957D
:103A1000E1F70E94171B0E94091BDD24D3944CC0C0
:103A20008091BB0181608093BB01C8010E948A170D
:103A300043C07E2DF98AE88A89890E94C91AE6EB7B
:103A4000F1E086E0DF011D928A95E9F70E94091BEB
:103A500033C0662309F439CF4D875E878D859E85F7
:103A60000E94A41A882309F430CFCBCF4D875E87FC
:103A70008D859E850E94C71F292F22952F7030E0CB
:103A8000223031052CF49F7041F0811106C00CC02A
:103A9000243031052CF49F7049F4805E883020F08A
:103AA000C8010E948A17CF2CDC2C06C0D8011596BD
:103AB0009C91907F91F7F8CF8D2D62960FB6F89478
:103AC000DEBF0FBECDBFDF91CF911F910F91FF9051
:103AD000EF90DF90CF9008951F93CF93DF93CDB7F2
:103AE000DEB72C970FB6F894DEBF0FBECDBF4F8365
:103AF000588769877A878B879C87CE0107960E94B3
:103B00007F1B8823C1F02F8138858A859B85892B6F
:103B100031F03F3F11F080E003C02F3FE1F781E03B
:103B2000811147C04F81588569857A858B859C8531
:103B30000E94D81A3EC086E0FE013796DE0111963B
:103B400001900D928A95E1F7FF81E8854A855B85B2
:103B50004115510531F0EF3F31F481E0FF3F19F499
:103B600003C081E001C080E080FD23C02091850179
:103B700030E0C9010196877099276091840170E057
:103B800086179707F1F1F983EA835D834C8396E00A
:103B9000929FD001939FB00D1124AA57BE4FFE01F2
:103BA000319601900D929A95E1F7809385010E94DC
:103BB000E81A16E08091840190918501891779F1C6
:103BC000189FC00111248A579E4F0E947F1B882393
:103BD00031F1E09184011E9FF0011124EA57FE4F5C
:103BE0004081518162817381848195810E94D81ABC
:103BF0008091840190E001968770992780938401D9
:103C0000D9CF0E94A01A1092850110928401E6EB90
:103C1000F1E086E0DF011D928A95E9F7CACF2C9684
:103C20000FB6F894DEBF0FBECDBFDF91CF911F91CD
:103C30000895EF92FF920F931F93CF93DF93FC01B0
:103C4000009709F46FC0F12CEE24E394EF01219664
:103C50008491843740F4843008F055C0813081F07D
:103C6000823021F15FC0853709F447C0C0F19CE77D
:103C7000980F903708F056C08F770E942D1745C0D7
:103C80008F010E5F1F4FFE01849190E2980F9830D4
:103C900050F48770FE2D01C0FF0F8A95EAF78F2F31
:103CA0000E94BC2015C00E94651614C08F010E5FD3
:103CB0001F4FFE01849190E2980F983068F487704E
:103CC000FE2D01C0FF0F8A95EAF78F2F0E94C220B8
:103CD0000E94E520E80119C00E942D17FBCFCF01FB
:103CE0000296FE01C491CC2361F0EFE9FFE0319729
:103CF000F1F700C00000C150F6CFCF010296FE01DF
:103D0000F490EC0102C00E9465168F2D882341F0CB
:103D1000EFE9FFE03197F1F700C000008150F6CFE6
:103D2000FE0194CFDF91CF911F910F91FF90EF9003
:103D3000089508956093C0017093C1018093C201FA
:103D40009093C3010C948E1A0F931F930091C0019E
:103D50001091C1012091C2013091C301062B172B94
:103D6000282B392B0093C0011093C1012093C2016D
:103D70003093C3011F910F910C948E1A0F931F93D0
:103D80000091C0011091C1012091C2013091C30185
:103D900006231723282339230093C0011093C10160
:103DA0002093C2013093C3011F910F910C948E1A7E
:103DB0000F931F930091C0011091C1012091C20186
:103DC0003091C30106271727282739270093C00100
:103DD0001093C1012093C2013093C3011F910F9131
:103DE0000C948E1A1092BC011092BD011092BE016B
:103DF0001092BF010C948E1A41E050E060E070E038
:103E000004C0440F551F661F771F8A95D2F7409351
:103E1000BC015093BD016093BE017093BF010C942F
:103E20008E1A41E050E060E070E004C0440F551F7E
:103E3000661F771F8A95D2F78091BC019091BD01D2
:103E4000A091BE01B091BF01842B952BA62BB72B5F
:103E50008093BC019093BD01A093BE01B093BF01BC
:103E60000C948E1A41E050E060E070E004C0440F12
:103E7000551F661F771F8A95D2F74095509560951C
:103E800070958091BC019091BD01A091BE01B0914F
:103E9000BF0184239523A623B7238093BC0190936D
:103EA000BD01A093BE01B093BF010C948E1A41E0F6
:103EB00050E060E070E004C0440F551F661F771F9C
:103EC0008A95D2F78091BC019091BD01A091BE016D
:103ED000B091BF0184279527A627B7278093BC01FF
:103EE0009093BD01A093BE01B093BF010C948E1AB4
:103EF0000F931F930091BC011091BD012091BE0151
:103F00003091BF01062B172B282B392B0093BC01B6
:103F10001093BD012093BE013093BF011F910F91FB
:103F20000C948E1A0F931F930091BC011091BD0148
:103F30002091BE013091BF01062317232823392386
:103F40000093BC011093BD012093BE013093BF01CB
:103F50001F910F910C948E1A0F931F930091BC0127
:103F60001091BD012091BE013091BF010627172796
:103F7000282739270093BC011093BD012093BE016F
:103F80003093BF011F910F910C948E1A0895CF9218
:103F9000DF92EF92FF920F931F93CF93DF93EC0189
:103FA000C090C001D090C101E090C201F090C30167
:103FB0008091BC019091BD01A091BE01B091BF0163
:103FC000C82AD92AEA2AFB2A0FE110E0B701A60184
:103FD000002E04C076956795579547950A94D2F7B9
:103FE00040FF07C0BE01802F0E94DB0B813091058E
:103FF00039F40150110950F7BE0180E00E94DB0B3B
:10400000DF91CF911F910F91FF90EF90DF90CF90B4
:10401000089590910C01992361F190910D019923DC
:1040200041F1982F9695969596959F3088F4E0915A
:104030000E01F0910F01E90FF11D877021E030E0D2
:1040400001C0220F8A95EAF78181822B818308952E
:104050009091D70190FF2DC01F928F9387ED95E02F
:104060009F938F930E94ED070F900F900F900F90EA
:10407000089540910E0150910F0120E030E09FEF34
:10408000FA01E20FF31F6281681799F09F3F19F45C
:10409000611101C0922F2F5F3F4F2E30310581F704
:1040A0009F3F39F0FA01E90FF11D97FDFA958283E0
:1040B0000895089590910C01992369F190910D0153
:1040C000992349F1982F9695969596959F3090F45F
:1040D000E0910E01F0910F01E90FF11D877021E0D1
:1040E00030E001C0220F8A95EAF7209581812823CC
:1040F000218308959091D70190FF1FC01F928F9345
:1041000089EB95E09F938F930E94ED070F900F909E
:104110000F900F90089540910E0150910F0120E0F3
:1041200030E0FA01E20FF31F9281981301C012826E
:104130002F5F3F4F2E303105A1F7089581E090E0C9
:10414000E0910E01F0910F01E80FF91F1082019626
:1041500080319105A9F708959091D601982B9093FD
:10416000D601089580959091D60198239093D60119
:1041700008951092D60108959091D501982B9093AF
:10418000D501089580959091D50198239093D501FC
:1041900008951092D50108958093C4010895109256
:1041A000C401089540910E0150910F0120E030E0CC
:1041B00080E0FA01E20FF31F918191118F5F2F5F71
:1041C0003F4F2F303105A9F70895E0910E01F0918E
:1041D0000F018091D6018083E0910E01F0910F01D3
:1041E00080819091D501892B80839091C40199237E
:1041F00061F0E0910E01F0910F018081892B8083A5
:104200000E94D22081111092C40180910E019091E0
:104210000F010C94E71490933B0180933A010895A9
:10422000CF92DF92EF92FF920F931F936C01EE24D7
:10423000FF24C114D104E104F10421F46B017C01D9
:1042400080E001C080E133272F2D1E2D0D2D01159B
:1042500011052105310519F0885F68017901970181
:104260008601A4E03695279517950795AA95D1F76D
:10427000011511052105310519F08C5F68017901DF
:1042800097018601F2E03695279517950795FA95DF
:10429000D1F7011511052105310519F08E5F68016F
:1042A0007901B701A6017695679557954795452BF6
:1042B000462B472B09F08F5F1F910F91FF90EF90D6
:1042C000DF90CF9008958295982F9C7C9695969537
:1042D000837344E0849F90011124922B892F8A7A62
:1042E00086959575990F892B08951F93CF93DF932A
:1042F0001F92CDB7DEB799830E946321182F998151
:10430000892F0E946321212F30E0322F2227A9011B
:10431000482BCA010F90DF91CF911F910895809192
:10432000F001843009F11092D80120E488E190E096
:104330000FB6F894A895809360000FBE209360009C
:1043400083B7817F846083BF83B7816083BF7894A4
:10435000889583B78E7F83BF88E10FB6F8948093EA
:104360006000109260000FBE089508950895CF93E5
:104370000E94B5210E9481090E94B621C0E08C2FC5
:104380000E94AC0A811105C0CF5FCE30C1F780E03A
:1043900001C081E0CF9108950C94A01A82E084BD01
:1043A00093E095BD9AEF97BD80936E0008952FB767
:1043B000F8948091D9019091DA01A091DB01B0913C
:1043C000DC012FBF0895CF92DF92EF92FF920F93FF
:1043D0001F932FB7F8944091D9015091DA01609161
:1043E000DB017091DC012FBF6A017B01EE24FF2409
:1043F0008C0120E030E0C016D106E206F30610F48E
:1044000041505109481B590BCA011F910F91FF9050
:10441000EF90DF90CF9008951F920F920FB60F92FA
:1044200011248F939F93AF93BF938091D901909163
:10443000DA01A091DB01B091DC010196A11DB11D53
:104440008093D9019093DA01A093DB01B093DC0152
:10445000BF91AF919F918F910F900FBE0F901F90C2
:1044600018950E94E211F8942FEF87EA91E6215007
:1044700080409040E1F700C0000087E090EBDC0155
:104480008093F9019093FA01A093FB01B093FC0192
:104490002CE088E190E00FB6F894A8958093600036
:1044A0000FBE20936000FFCFEF92FF920F931F93F8
:1044B000CF93DF93E82EF12C8F2D0E94AC0AC0E041
:1044C000D0E0082F10E098010C2E02C035952795FA
:1044D0000A94E2F720FD05C02196C630D10599F770
:1044E00009C06C2F7F2D80E00E94B90BE812F4CF39
:1044F00081E005C0F3948EE0F812DECF80E0DF911A
:10450000CF911F910F91FF90EF900895CF93C82FF7
:104510008CE20E945422882321F08C2FCF910C949E
:10452000542280E0CF910895CF930E94E12381111E
:1045300002C00E94C7238CEF95E00E945407C5E695
:10454000C15049F00E9481098FE39CE90197F1F77E
:1045500000C00000F5CF85EF95E00E94540789E286
:104560000E948622811111C18AE20E948622811155
:104570000E94C72385E00E94862281110E94312279
:104580000E94EC238093D70187E00E948622882333
:1045900099F18BE10E948622882351F09091D701F6
:1045A00091FB882780F921E0822780FB91F922C0C6
:1045B0008EE00E948622882351F09091D70192FBD1
:1045C000882780F921E0822780FB92F913C080E1DF
:1045D0000E9486229091D701882341F093FB88277F
:1045E00080F921E0822780FB93F904C0892F809510
:1045F00080FB90F99093D7018091D7010E94F0231E
:104600000E94FE238093EA0180EE0E948622882386
:1046100041F08091EA01982F909590FB80F980936A
:10462000EA0189E30E948622882359F09091EA01E9
:1046300091FB882780F921E0822780FB91F99093F4
:10464000EA0182EE0E948622882359F09091EA01C5
:1046500092FB882780F921E0822780FB92F99093D2
:10466000EA0186EE0E948622882359F09091EA01A1
:1046700093FB882780F921E0822780FB93F99093B0
:10468000EA0183EE0E948622882359F09091EA0184
:1046900094FB882780F921E0822780FB94F990938E
:1046A000EA0185E30E948622882359F09091EA016D
:1046B00095FB882780F921E0822780FB95F990936C
:1046C000EA0181E30E948622882359F09091EA0151
:1046D00096FB882780F921E0822780FB96F990934A
:1046E000EA0181E10E948622882359F09091EA0133
:1046F00097FB882780F921E0822780FB97F9909328
:10470000EA018091EA010E9402248091EA0187FB7C
:10471000882780F980930D0187E20E948622C82FA6
:104720008EE10E9486228111C2608FE10E94862262
:104730008111C46080E20E9486228111C86081E2FA
:104740000E9486228111C06182E20E94862281112C
:10475000C06283E20E9486228111C06484E20E94CA
:104760008622882311F0C06802C0CC2329F08C2F48
:104770000E94F9236C2F03C00E94F523682F70E07C
:1047800080E090E0CF910C949A1ECF9108956DEE49
:104790007EEF80E090E00E94BC2D60E082E090E03F
:1047A0000E94AE2D60E083E090E00E94AE2D60E0BC
:1047B00084E090E00E94AE2D60E085E090E00C94F3
:1047C000AE2D80E090E00E94A82D21E08D3E9E4F0E
:1047D00009F020E0822F089582E090E00C94A02D53
:1047E000682F82E090E00C94AE2D83E090E00C9472
:1047F000A02D682F83E090E00C94AE2D84E090E033
:104800000C94A02D682F84E090E00C94AE2D809144
:10481000DF0180FF0BC06091130185E0689FB0014C
:10482000112475956795759567952AC081FF09C014
:104830006091130185E0689FB0011124759567951B
:104840001FC082FF07C06091130185E0689FB0011F
:10485000112416C04091E0014423C9F06091120177
:10486000461788F72091130185E0289F90011124B5
:10487000429FC001439F900D112470E00E94722D51
:104880006038710540F46115710539F002C065E0CA
:1048900070E0862F08958FE7089581E00895809154
:1048A000DF0180FF08C06091110170E07595679588
:1048B0007595679521C081FF06C06091110170E078
:1048C0007595679519C082FF04C06091110170E071
:1048D00010C08091E0018823C1F06091100186171B
:1048E000A0F790911101989FC001112470E00E94DF
:1048F000722D6038710528F46115710521F0862F3D
:1049000008958FE7089581E0089561E070E0F4CFA5
:10491000803F21F40E940724819504C0813F29F43F
:104920000E9407248093E3010895823F21F40E94AE
:104930000724819504C0833F29F40E9407248093B3
:10494000E2010895893F19F40E944F2405C08A3F6F
:1049500031F40E944F2481958093E40108958B3FA8
:1049600021F40E944F24819504C08C3F29F40E94B9
:104970004F248093E5010895843F21F48091E10163
:10498000816017C0853F21F48091E101826011C0F0
:10499000863F21F48091E10184600BC0873F21F4C0
:1049A0008091E101886005C0883F31F48091E10188
:1049B00080618093E10108958D3F21F48091DF01B2
:1049C00081600BC08E3F21F48091DF01826005C0C1
:1049D0008F3F29F48091DF0184608093DF01089587
:1049E000803F39F48091E30187FF6CC01092E301AE
:1049F00069C0813F29F48091E3011816BCF362C0BD
:104A00009091E201823F29F497FF5CC01092E2018D
:104A100059C0833F19F41916CCF354C0893F41F4AF
:104A20008091E40118160CF04DC01092E4014AC0C8
:104A30008A3F29F48091E40187FF44C0F6CF8B3F81
:104A400039F48091E50187FF3DC01092E5013AC03D
:104A50008C3F29F48091E5011816BCF333C0843FE4
:104A600021F48091E1018E7F17C0853F21F4809170
:104A7000E1018D7F11C0863F21F48091E1018B7FA0
:104A80000BC0873F21F48091E101877F05C0883FFB
:104A900031F48091E1018F7E8093E10113C08D3F5D
:104AA00021F48091DF018E7F0BC08E3F21F4809135
:104AB000DF018D7F05C08F3F29F48091DF018B7F5F
:104AC0008093DF018091E20181110EC08091E301AA
:104AD00081110AC08091E401811106C08091E50135
:104AE000811102C01092E00108958091D70183FFE7
:104AF0007EC088E396E00E9454078091E1011F92F6
:104B00008F9383E396E09F938F930E94ED0781E359
:104B100096E00E9454072091E201822F992787FD99
:104B200090959F932F938EE296E09F938F930E9490
:104B3000ED078CE296E00E9454072091E301822F5A
:104B4000992787FD90959F932F9389E296E09F93F5
:104B50008F930E94ED0787E296E00E945407209110
:104B6000E401822F992787FD90959F932F9384E2EC
:104B700096E09F938F930E94ED0782E296E00E9459
:104B800054072091E501822F992787FD90959F93E7
:104B90002F938FE196E09F938F930E94ED078CE116
:104BA00096E00E9454078091E0011F928F9389E163
:104BB00096E09F938F930E94ED0787E196E00E9415
:104BC00054078091DF011F928F9384E196E09F93B9
:104BD0008F930E94ED0781E196E00E9454078DB704
:104BE0009EB74C960FB6F8949EBF0FBE8DBF81EE58
:104BF00091E00E942C150E94D7219093DE018093B2
:104C0000DD0108951F93CF93DF938091DD01909193
:104C1000DE010E94E3214091E001442321F0209134
:104C2000140130E006C0209115015AE0259F900143
:104C300011248217930708F482C08091E201109139
:104C4000E301D091E401C091E501811107C0111188
:104C500005C0D11103C0CC2309F471C04F3F19F036
:104C60004F5F4093E001181624F40E9407248093BC
:104C7000E2018091E20187FF05C00E94072481952F
:104C80008093E201111624F40E9407248093E3012B
:104C90008091E30187FF05C00E94072481958093DE
:104CA000E3016091E201662339F11091E3011123E0
:104CB00019F1772767FD7095872F972F0E94772C22
:104CC00023E333E343E35FE30E94DB2C0E94442CA5
:104CD0006093E201612F772767FD7095872F972FEB
:104CE0000E94772C23E333E343E35FE30E94DB2C52
:104CF0000E94442C6093E3011D1624F40E944F246B
:104D00008093E4018091E40187FF05C00E944F2455
:104D100081958093E4011C1624F40E944F24809313
:104D2000E5018091E50187FF05C00E944F24819530
:104D30008093E501DF91CF911F910C947525DF9150
:104D4000CF911F910895E1EEF1E085E0DF011D9222
:104D50008A95E9F71092E0011092DF0108958BE542
:104D600098E00E9454071F9281E08F931F9285E084
:104D70008F938DE098E09F938F930E94ED070F90A3
:104D80000F900F900F900F900F9008958330E9F1DE
:104D900028F4813061F0823009F10895853009F4FA
:104DA00062C008F449C0863009F474C008952091A7
:104DB0001501862F90E0820F911D8F3F910520F401
:104DC000620F6093150103C08FEF809315018091EE
:104DD00015011F928F9386E497E072C02091140111
:104DE000862F90E0820F911D8F3F910520F4620F76
:104DF0006093140103C08FEF80931401809114011C
:104E00001F928F9384E397E05BC020911301862F5C
:104E100090E0820F911D8F3F910520F4620F609307
:104E2000130103C08FEF80931301809113011F9230
:104E30008F9381E297E044C020911201862F90E089
:104E4000820F911D8F3F910520F4620F6093120134
:104E500003C08FEF80931201809112011F928F93F4
:104E60008CE097E02DC020911101862F90E0820FF9
:104E7000911D8F3F910520F4620F6093110103C0D3
:104E80008FEF80931101809111011F928F9383EF17
:104E900096E016C020911001862F90E0820F911DA0
:104EA0008F3F910520F4620F6093100103C08FEFD4
:104EB00080931001809110011F928F9388ED96E0EE
:104EC0009F938F930E94ED070F900F900F900F907C
:104ED0000895833081F128F4813059F08230D1F087
:104EE0000895853009F449C0B8F1863009F456C0F8
:104EF000089580911501681720F4861B8093150191
:104F000002C010921501809115011F928F9389ECB8
:104F100096E054C080911401681720F4861B80939A
:104F2000140102C010921401809114011F928F93FA
:104F300087EB96E043C080911301681720F4861B2D
:104F40008093130102C010921301809113011F92EC
:104F50008F9384EA96E032C080911201681720F4A2
:104F6000861B8093120102C01092120180911201DF
:104F70001F928F938FE896E021C0809111016817EE
:104F800020F4861B8093110102C0109211018091C0
:104F900011011F928F9386E796E010C08091100157
:104FA000681720F4861B8093100102C01092100134
:104FB000809110011F928F938BE596E09F938F93C2
:104FC0000E94ED070F900F900F900F900895CF93D0
:104FD000C82F1F928F9320E639E03F932F930E94B2
:104FE000ED0761E070E080E090E004C0660F771F9D
:104FF000881F991FCA95D2F70E949A1E0F900F9092
:105000000F900F90CF910C94A01ACF938D3109F48B
:1050100065C0B0F58E3009F4CBC100F5873009F4D6
:105020009BC1A8F4863009F06AC28091D701817FC4
:105030008E7F8093D70185E699E00E94540784EA29
:105040009DE00E94540781E08093E70180C1883091
:1050500009F44FC08B3009F47CC151C2863109F488
:10506000EDC138F4803109F4B6C1813109F42DC2A3
:1050700046C2893109F4CBC18B3109F486C13FC2E4
:10508000853309F434C248F4873209F430C208F495
:1050900030C2893209F42BC232C2833438F48A33E5
:1050A00008F029C2883309F454C129C2833409F4B1
:1050B0001EC2883409F023C20E94A01A83E99DE031
:1050C0000E9454079FEF23ED80E3915020408040E1
:1050D000E1F700C000000E94312239C183EB9DE05E
:1050E0000E9454070E94FE2B0E94DB140E94190D9F
:1050F0002EC188EA9DE00E94540786E79BE00E944B
:1051000054070E94F5231F928F9383E79BE09F93A0
:105110008F930E94ED0781E79BE00E9454070E9455
:10512000EC23C82F8EE59BE00E9454071F92CF937B
:1051300029E53BE03F932F930E94ED0787E59BE035
:105140000E9454078DE49BE00E9454078C2F8170CD
:105150001F928F932AE43BE03F932F930E94ED0729
:1051600088E49BE00E9454078EE39BE00E94540772
:10517000C1FB882780F91F928F932BE33BE03F937D
:105180002F930E94ED0789E39BE00E9454078DE274
:105190009BE00E945407C2FB882780F91F928F93DF
:1051A0002AE23BE03F932F930E94ED0788E29BE0C9
:1051B0000E9454078FE19BE00E945407C3FBCC2759
:1051C000C0F91F92CF938CE19BE09F938F930E9435
:1051D000ED078AE19BE00E9454070E94FE23C82F3E
:1051E00086E09BE00E9454071F92CF9321E03BE0B2
:1051F0003F932F930E94ED078FEF9AE00E94540790
:1052000086EE9AE00E9454078C2F81701F928F9334
:1052100023EE3AE03F932F930E94ED078DB79EB7A0
:1052200080960FB6F8949EBF0FBE8DBF81EE9AE0B8
:105230000E9454078AEC9AE00E945407C1FB882719
:1052400080F91F928F9327EC3AE03F932F930E94AF
:10525000ED0785EC9AE00E94540783EB9AE00E94E8
:105260005407C2FB882780F91F928F9320EB3AE006
:105270003F932F930E94ED078EEA9AE00E94540715
:105280008CE99AE00E945407C3FB882780F91F929B
:105290008F9329E93AE03F932F930E94ED0787E926
:1052A0009AE00E9454078DE89AE00E945407C4FBDC
:1052B000882780F91F928F932AE83AE03F932F9333
:1052C0000E94ED0788E89AE00E94540786E79AE07A
:1052D0000E945407C5FB882780F91F928F9323E70C
:1052E0003AE03F932F930E94ED0781E79AE00E94F6
:1052F000540785E59AE00E945407C6FB882780F989
:105300001F928F9322E53AE03F932F930E94ED077F
:1053100080E59AE00E94540788E49AE00E945407CE
:10532000C7FBCC27C0F91F92CF9385E49AE09F93E7
:105330008F930E94ED0783E49AE00E9454078DB793
:105340009EB74C960FB6F8949EBF0FBE8DBFC1E0BE
:10535000DBC08CE899E058C08091D701C82FC1709C
:1053600080FF09C086E89DE00E9454078091D70124
:10537000817F8E7F44C08AE79DE00E945407809120
:10538000D70181608093D701E2CF8091D70181FB63
:10539000CC27C0F991E0C927C0FB81F98093D701E0
:1053A000CC2319F08DE69DE025C08FE59DE02CC053
:1053B0008091D70182FBCC27C0F991E0C927C0FBBF
:1053C00082F98093D701CC2319F080E59DE012C0CB
:1053D00080E49DE019C08091D70183FBCC27C0F900
:1053E00091E0C927C0FB83F98093D701CC2351F00A
:1053F00084E39DE00E9454078091D70181608093EF
:10540000D70182C087E29DE00E945407A0CF88E1C7
:105410009DE00E9454078CEE9CE00E9454078FEAA6
:105420009CE00E94540788E89CE00E94540784E4B2
:105430009CE00E94540786E19CE0E6CF88E09CE077
:105440000E9454070E94DB141F928F938EEE9BE004
:105450009F938F930E94ED0780910C011F928F9371
:1054600087ED9BE09F938F930E94ED0780916E01E3
:105470001F928F9384EC9BE09F938F930E94ED0784
:1054800080910D011F928F9381EB9BE09F938F93EF
:105490000E94ED078091D9019091DA01A091DB0182
:1054A000B091DC01BF93AF939F938F938DE99BE005
:1054B0009F938F930E94ED078DB79EB746960FB6C8
:1054C000F8949EBF0FBE8DBF42CF0E94A01AC0911C
:1054D0000D0181E0C827C0930D01CC2329F083E999
:1054E0009BE00E94540710C088E89BE08DCF80E0CD
:1054F00003C08D5101C089530E94E72728CF86E859
:105500009BE00E945407C0E08C2FCF91089580E06B
:10551000089580E00895CF93C82F8091E7018130EE
:1055200081F020F0823009F44CC042C1A0910E01FC
:10553000B0910F018C91813169F0823209F03AC14A
:1055400009C0A0910E01B0910F018C91813111F031
:10555000823249F48C2F0E94872A81112FC08C2F10
:105560000E9405282CC08C2F0E94892A811126C0F8
:10557000C431E1F070F4CB3081F0C031D1F40E943D
:10558000AF2688E599E00E94540782E08093E70106
:1055900015C0C93259F0C83361F485E699E00E941C
:1055A00054078CE599E00E94540708C01092E70167
:1055B00003C186E599E00E945407FEC081E0817036
:1055C000FDC0C43220F5CE3108F0C0C0CB3099F117
:1055D000C8F4C73009F0D2C08AE08093150194E185
:1055E0009093140193E0909313018093120188E04B
:1055F0008093110188E2809310018CEF97E00E9464
:105600005407BFC0C33149F1C431C1F0B7C0CB3476
:1056100009F4A9C028F4C93289F0C83361F0AEC0DA
:10562000C13509F49EC0C23509F499C0CE3409F0E1
:10563000A5C06AE09EC00E94AF26A3C08091E6018B
:10564000882319F01092E6019CC089E098E00E943E
:10565000540781E08093E701B1C083EE97E00E9498
:10566000540781ED97E00E945407809115011F9225
:105670008F938EEC97E09F938F930E94ED078CECB5
:1056800097E00E9454078AEB97E00E9454078091AC
:1056900014011F928F9387EB97E09F938F930E9443
:1056A000ED0785EB97E00E94540786EA97E00E9499
:1056B0005407809113011F928F9383EA97E09F9381
:1056C0008F930E94ED0781EA97E00E94540780E9DA
:1056D00097E00E945407809112011F928F938DE8EA
:1056E00097E09F938F930E94ED078BE897E00E94CD
:1056F000540786E797E00E945407809111011F929A
:105700008F9383E797E09F938F930E94ED0781E744
:1057100097E00E9454078AE597E00E945407809121
:1057200010011F928F9387E597E09F938F930E94BC
:10573000ED0785E597E00E9454078DB79EB7489620
:105740000FB6F8949EBF0FBE8DBF1BC0CE51EC2F7D
:10575000F0E0E15DFE4F80818093E60112C061E0E0
:1057600003C061E006C06AE08091E6010E94C6269F
:1057700008C08091E6010E94692703C08AEF97E084
:1057800013C08091E601882369F01F928F9384EF04
:1057900097E09F938F930E94ED070F900F900F90CB
:1057A0000F9004C081EF97E00E94540781E006C08B
:1057B0001092E70180E002C080E001CFCF91089510
:1057C000E1E8F0E08081886080838081816080836F
:1057D0008FB7F89493E09093890090ED90938800B0
:1057E0008FBF0895EFE6F0E08081826080830895A6
:1057F000EFE6F0E080818D7F80830895EFE6F0E0B2
:10580000808192E08927808308951F920F920FB6BE
:105810000F9211242F933F934F935F936F937F9336
:105820008F939F93AF93BF93EF93FF938091E80182
:105830009091E90101969093E9018093E80181112B
:1058400003C082E00E94190DE091E901E695E6951A
:10585000F0E0ED53F24FE4918091E8018E1303C024
:1058600080E00E94190DFF91EF91BF91AF919F9140
:105870008F917F916F915F914F913F912F910F90F9
:105880000FBE0F901F90189504D06894B1118DC071
:10589000089570D088F09F5790F0B92F9927B7518D
:1058A000A0F0D1F0660F771F881F991F1AF0BA95E4
:1058B000C9F712C0B13081F077D0B1E0089574C05B
:1058C000672F782F8827B85F39F0B93FCCF38695DA
:1058D00077956795B395D9F73EF490958095709537
:1058E00061957F4F8F4F9F4F0895E89409C097FBB4
:1058F0003EF490958095709561957F4F8F4F9F4FA7
:105900009923A9F0F92F96E9BB279395F6958795EA
:1059100077956795B795F111F8CFFAF4BB0F11F4AD
:1059200060FF1BC06F5F7F4F8F4F9F4F16C0882354
:1059300011F096E911C0772321F09EE8872F762F8A
:1059400005C0662371F096E8862F70E060E02AF0CB
:105950009A95660F771F881FDAF7880F96958795B7
:1059600097F9089557FD9058440F551F59F05F3F20
:1059700071F04795880F97FB991F61F09F3F79F071
:1059800087950895121613061406551FF2CF4695F3
:10599000F1DF08C0161617061806991FF1CF869575
:1059A0007105610508940895E894BB276627772759
:1059B000CB0197F908950BD078C069D028F06ED04C
:1059C00018F0952309F05AC05FC01124EECFCADF4A
:1059D000A0F3959FD1F3950F50E0551F629FF00102
:1059E000729FBB27F00DB11D639FAA27F00DB11D5B
:1059F000AA1F649F6627B00DA11D661F829F2227E4
:105A0000B00DA11D621F739FB00DA11D621F839F6A
:105A1000A00D611D221F749F3327A00D611D231F40
:105A2000849F600D211D822F762F6A2F11249F578E
:105A300050408AF0E1F088234AF0EE0FFF1FBB1FB1
:105A4000661F771F881F91505040A9F79E3F510550
:105A500070F014C0AACF5F3FECF3983EDCF386955C
:105A600077956795B795F795E7959F5FC1F7FE2BFB
:105A7000880F911D9695879597F9089597F99F67D7
:105A800080E870E060E008959FEF80EC08950024C6
:105A90000A941616170618060906089500240A9493
:105AA00012161306140605060895092E0394000C19
:105AB00011F4882352F0BB0F40F4BF2B11F460FFA8
:105AC00004C06F5F7F4F8F4F9F4F0895991B79E000
:105AD00004C0991F961708F0961B881F7A95C9F77E
