:100000000C9409070C944D070C944D070C944D0764
:100010000C944D070C944D070C944D070C944D0710
:100020000C944D070C944D070C946F120C944113D3
:100030000C944D070C944D070C944D070C944D07F0
:100040000C944D070C94172C0C944D070C944D07F1
:100050000C944D070C941E220C944D070C944D07E4
:100060000C944D070C944D070C944D070C944D07C0
:100070000C944D070C944D070C944D070C944D07B0
:100080000C944D070C944D070C944D070C944D07A0
:100090000C944D070C944D070C944D070C944D0790
:1000A0000C944D070C944D070C944D07A613C813E0
:1000B000B314C813B3140A142D14B3148214951472
:1000C000E317E3171118111854189018911A911A80
:1000D000A818911A9F199F196B1A911A911A7F1AD1
:1000E00001E00104020402E0000000F0A135002B51
:1000F00000E000E100013000001E00140004001DBB
:100100007129004D001F001A0016001B00E1042A8F
:1001100000200008000700060050002C00210015F8
:1001200000090019744F004A00220017000A000558
:10013000780000E20034002D000000007F0000E3A2
:100140000001542E00000000770000290023001C4D
:10015000000B0011780000E600240018000D0010CC
:100160007452004B0025000C000E00360051002890
:1001700000260012000F0037002F002B002700136D
:10018000003382387130004E002A003100E300E570
:100190000034000000010001000100010001000026
:1001A000003A001E0220022202010001003B001F53
:1001B0000221022302010001003C002F0226022F2F
:1001C00000010001003D0030022702300001000163
:1001D000003E00310235003502000001000100013F
:1001E000000000010000000100010001000000010A
:1001F00000000001003F00520051002402000001F5
:10020000004000240021001E0001000100410025E3
:100210000022001F003700010042002600230020BA
:100220000027000100430025022E0231002E0001AC
:1002300000440045000100010001000000460001EB
:100240000001000100010000000100A60001000102
:100250000001000100010001005000010001000147
:10026000000100520051000100F4000100010001F2
:10027000004F000100F50001000100010001000134
:100280000000000100010001000000010000000169
:100290000001000100000001000000010001000158
:1002A0000001000100000001000100010001000147
:1002B00000A9000100010001000100AC00AA00B685
:1002C00000010001000100AB00A8000100010001D5
:1002D00000010001000100010001000100AE000169
:1002E00000010000000A002530313662003A20008B
:1002F00025303258000A722F6320303132333435C2
:10030000363738394142434445460A000A00253011
:10031000325800626F756E6365213A20006C656625
:100320007420736964652061747461636865640A2C
:10033000006C6566742073696465206E6F7420724A
:100340006573706F6E64696E670A00747279696EA6
:100350006720746F207265736574206D637032332B
:100360003031380A000A44454255473A20656E61EB
:10037000626C65642E0A005B735D004B6579626F89
:100380006172642073746172742E0A005B575D00A1
:100390005B535D005B525D005B445D005B435D0051
:1003A00016034500720067006F0044006F0078007C
:1003B000200045005A000000160345007200670047
:1003C0006F0044006F007800200045005A000000D4
:1003D0000403090409028D00050100A0FA090400C4
:1003E000000103010100092111010001223F000762
:1003F00005810308000A0904010001030102000944
:100400002111010001224D000705820308000A099D
:10041000040200010300000009211101000122363D
:10042000000705830308000A090403000203000013
:10043000000921110100012220000705840320008A
:100440000107050403200001090404000103000062
:100450000009211101000122390007058503100060
:10046000011201100100000008EDFE071301000158
:1004700002000105010906A101050719E029E71598
:1004800000250195087501810205081901290595C6
:100490000575019102950175039101050719002960
:1004A0007715002501957875018102C00631FF0995
:1004B00074A1010975150025FF95207508810209B1
:1004C00076150025FF952075089102C00501098069
:1004D000A101850216010026B7001A01002AB70003
:1004E000751095018100C0050C0901A10185031655
:1004F0000100269C021A01002A9C027510950181B8
:1005000000C005010902A1010901A10005091901A5
:1005100029051500250195057501810295017503D1
:1005200081010501093009311581257F9502750882
:10053000810609381581257F950175088106050C0E
:100540000A38021581257F950175088106C0C0050E
:10055000010906A101050719E029E7150025019504
:1005600008750181029501750881010508190129A5
:10057000059505750191029501750391010507190E
:100580000029FF150025FF950675088100C00A00A7
:100590002530325820006B6579626F6172645F723A
:1005A00065706F72743A20000A0025303258006B73
:1005B0006579626F6172645F7365745F6C65643ADC
:1005C000200064656C5F6B65795F6269743A2063D3
:1005D000616E27742064656C3A20253032580A0019
:1005E0006164645F6B65795F6269743A2063616E10
:1005F0002774206164643A20253032580A00646F01
:100600006E652E0A00626F6F676D616769632073A4
:1006100063616E3A202E2E2E2000290A00257500D7
:100620002F002575005D280025640020002564004A
:10063000200025640020002564007C00253032580D
:10064000006D6F7573656B6579205B62746E7C7885
:100650002079207620685D287265702F61636C298F
:100660003A205B006D6B5F776865656C5F74696DE0
:10067000655F746F5F6D6178203D2025640A006DB1
:100680006B5F776865656C5F6D61785F73706565DA
:1006900064203D2025640A006D6B5F74696D655FA1
:1006A000746F5F6D6178203D2025640A006D6B5F7B
:1006B0006D61785F7370656564203D2025640A0074
:1006C0006D6B5F696E74657276616C203D20256488
:1006D0000A006D6B5F64656C6179203D2025640ABA
:1006E000006D6B5F776865656C5F74696D655F74DD
:1006F0006F5F6D6178203D2025640A006D6B5F7728
:100700006865656C5F6D61785F7370656564203DD9
:100710002025640A006D6B5F74696D655F746F5F9F
:100720006D6178203D2025640A006D6B5F6D6178F6
:100730005F7370656564203D2025640A006D6B5F02
:10074000696E74657276616C203D2025640A006DC7
:100750006B5F64656C6179203D2025640A000A00A6
:10076000257500363A20776865656C5F74696D653C
:100770005F746F5F6D61783A20000A00257500355F
:100780003A20776865656C5F6D61785F7370656549
:10079000643A20000A00257500343A2074696D65BA
:1007A0005F746F5F6D61783A20000A002575003331
:1007B0003A206D61785F73706565643A20000A00C5
:1007C000257500323A20696E74657276616C286D09
:1007D00073293A20000A00257500313A2064656CBF
:1007E0006179282A31306D73293A20000A092D20B9
:1007F00056616C756573202D0A004D3E004D2564D1
:100800003E20003F007365742064656661756C74FA
:100810000A00433E200077686572652064656C7449
:10082000613A20637572736F723D25642C2077687E
:1008300065656C3D25640A53656520687474703A7B
:100840002F2F656E2E77696B6970656469612E6FF5
:1008500072672F77696B692F4D6F7573655F6B6575
:1008600079730A000A092D204D6F7573656B6579E0
:10087000202D0A4553432F713A09717569740A3165
:100880003A0964656C6179282A31306D73290A321E
:100890003A09696E74657276616C286D73290A3342
:1008A0003A096D61785F73706565640A343A09745A
:1008B000696D655F746F5F6D61780A353A097768B5
:1008C00065656C5F6D61785F73706565640A363A63
:1008D00009776865656C5F74696D655F746F5F6DDE
:1008E00061780A0A703A097072696E742076616CD8
:1008F0007565730A643A0973657420646566617589
:100900006C74730A75703A092B310A646F776E3A0A
:10091000092D310A706775703A092B31300A7067FA
:10092000646F776E3A092D31300A0A737065656419
:10093000203D2064656C7461202A206D61785F73AE
:1009400070656564202A2028726570656174202FA7
:100950002074696D655F746F5F6D6178290A003F6F
:10096000004D3E2000433E20004C25640A000A0949
:100970002D20436F6E736F6C65202D0A4553432FF6
:10098000713A09717569740A6D3A096D6F7573650D
:100990006B65790A000A092D204D61676963202D76
:1009A0000A643A0964656275670A783A096465629F
:1009B0007567206D61747269780A6B3A09646562C3
:1009C0007567206B6579626F6172640A6D3A0964BC
:1009D00065627567206D6F7573650A763A0976658D
:1009E0007273696F6E0A733A097374617475730A6E
:1009F000633A09636F6E736F6C65206D6F64650A8F
:100A0000302D343A096C61796572302D34284631C5
:100A1000302D4634290A506175733A09626F6F743C
:100A20006C6F616465720A653A09656570726F6D15
:100A30000A6E3A094E4B524F0A7A3A09736C656551
:100A400070204C454420746573740A000A002575B3
:100A5000002E6E6B726F3A20000A002575002E730F
:100A60007761705F6261636B736C6173685F626111
:100A7000636B73706163653A20000A002575002E70
:100A8000737761705F67726176655F6573633A2043
:100A9000000A002575002E6E6F5F6775693A2000A9
:100AA0000A002575002E737761705F72616C745F48
:100AB000726775693A20000A002575002E73776108
:100AC000705F6C616C745F6C6775693A20000A0036
:100AD0002575002E636170736C6F636B5F746F5F5D
:100AE000636F6E74726F6C3A20000A002575002ED9
:100AF000737761705F636F6E74726F6C5F63617048
:100B0000736C6F636B3A20000A0025303258006B1B
:100B100065796D61705F636F6E6669672E7261776C
:100B20003A20000A002575002E6D6F7573653A2016
:100B3000000A002575002E6B6579626F6172643A58
:100B400020000A002575002E6D61747269783A20C4
:100B5000000A002575002E656E61626C653A200002
:100B60000A00253032580064656275675F636F6EF6
:100B70006669672E7261773A20000A002575006465
:100B8000656661756C745F6C617965723A20003FCF
:100B9000004E4B524F3A206F66660A004E4B524F42
:100BA0003A206F6E0A0074696D65725F636F756ECF
:100BB000743A202530346C580A006B6579626F6195
:100BC00072645F6E6B726F3A2025580A006B65790C
:100BD000626F6172645F69646C653A2025580A002F
:100BE0006B6579626F6172645F70726F746F636F4F
:100BF0006C3A2025580A00686F73745F6B657962E0
:100C00006F6172645F6C65647328293A2025580A05
:100C1000000A092D20537461747573202D0A004752
:100C200043433A20342E382E31204156522D4C4920
:100C300042433A20312E382E3073766E2041565280
:100C40005F415243483A20617672350A004F505452
:100C5000494F4E533A204C55464120424F4F544D38
:100C600041474943204D4F5553454B455920455821
:100C70005452414B455920434F4E534F4C4520430E
:100C80004F4D4D414E44204E4B524F203531320A8C
:100C9000004255494C443A20313635313935322DF0
:100CA0006469727479202832323A34333A3132200E
:100CB0004665622020392032303136290A005649F3
:100CC000443A20307846454544284572676F446F62
:100CD0007820455A29205049443A20307831333021
:100CE00037284572676F446F7820455A292056454A
:100CF000523A203078303030310A00444553433A7C
:100D000020742E6D2E6B2E206B6579626F6172647C
:100D1000206669726D7761726520666F7220457218
:100D2000676F646F780A000A092D2056657273692F
:100D30006F6E202D0A000A6D6F7573653A206F661D
:100D4000660A000A6D6F7573653A206F6E0A000AB5
:100D50006B6579626F6172643A206F66660A000A99
:100D60006B6579626F6172643A206F6E0A000A6D7A
:100D700061747269783A206F66660A000A6D617460
:100D80007269783A206F6E0A000A64656275673A84
:100D9000206F6E0A000A64656275673A206F6666A6
:100DA0000A000A0A626F6F746C6F616465722E2E9E
:100DB0002E2000433E20006565636F6E6669673ACA
:100DC0000A00536C656570204C454420746573744B
:100DD0000A00000000000000000000000001020402
:100DE000060A0F17202C3A4A5D71879DB3C7DAE9CE
:100DF000F5FCFFFCF5E9DAC7B39D87715D4A3A2C33
:100E000020170F0A06040201000000000000000085
:100E1000000011241FBECFEFDAE0DEBFCDBF04B665
:100E200003FE24C08091F9019091FA01A091FB0189
:100E3000B091FC018730904BA740B04BB9F41092B1
:100E4000F9011092FA011092FB011092FC0114BEFC
:100E500084B7877F84BF88E10FB6F89480936000E1
:100E6000109260000FBEE0E0FFE3099511E0A0E002
:100E7000B1E0EAECFBE502C005900D92AA33B107A0
:100E8000D9F721E0AAE3B1E001C01D92A93FB20762
:100E9000E1F70E94A90F0C94E32D0C940000FF933E
:100EA000EF93E0913A01F0913B01309709F00995F9
:100EB000EF91FF910895FC018591803011F0EFDFF3
:100EC000FBCF0895FF27E0E230E247FF0CC04195D9
:100ED00097FF09C0EDE26095709580959095611D32
:100EE000711D811D911D27FF02C0219530E350E245
:100EF000AA27660F771F881F991FAA1FA41710F033
:100F0000A41B63955A95A9F7AA3008F0A95FA05DC4
:100F1000AF93F395611571058105910541F7ED32A8
:100F200011F4EF93F395F21718F43F93F395FBCF79
:100F30008F91B5DFFA95E1F70895E991F9918591DF
:100F4000803021F0853219F0AADFF9CF089520E032
:100F5000E89455915532C1F3503311F4689455918A
:100F60005A3348F4505390F3220F022E220F220FCF
:100F7000200D250FF4CF0EF42195899199915336C8
:100F800019F3533729F1533559F1BC0188279927B3
:100F9000E8945C3621F4899199916894559154367E
:100FA00039F446EF7EF077FF0DC08FEF9FEF0AC058
:100FB00055374AE039F0583540E121F0523642E0E9
:100FC00009F00895FF93EF937DDFEF91FF91B7CF85
:100FD000FF93EF93FC0181918030B9F360DFFBCF89
:100FE000FF93EF9368DFF1CFDF93CF93CDB7DEB7F9
:100FF0002596A3DFCF91DF910895662319F0613024
:1010000069F013C0FC018281882321F085EE0E94E3
:1010100077160BC085EE0E943F1707C0FC01828146
:10102000882319F080EE90E0089580E090E0089524
:1010300008956091BC017091BD018091BE019091B5
:10104000BF010E94222156985E9825982D982698D7
:101050002E9827982F98813019F0823021F008952A
:10106000259A2D9A0895269A2E9A089589E198E056
:10107000892B11F00E94190880E090E0089556989D
:101080005E9825982D9826982E9827982F988FEF60
:1010900090E0909389008093880090938B008093D8
:1010A0008A0090938D0080938C00259A2D9A2FEFC3
:1010B00080E792E0215080409040E1F700C00000BE
:1010C000269A2E9A2FEF80E792E0215080409040A0
:1010D000E1F700C00000279A2F9A2FEF80E792E0F7
:1010E000215080409040E1F700C0000025982D98E5
:1010F0002FEF80E792E0215080409040E1F700C060
:10110000000026982E982FEF80E792E02150804033
:101110009040E1F700C0000027982F9856985E98FD
:1011200025982D9826982E9827982F98089589EA23
:101130008093800089E08093810024982C983F98C8
:101140008AB18F748AB96E98479A8BB1806B8BB9CC
:10115000769A0E943F0888E198E0892B11F00E945E
:10116000180880E090E0089580E28093000180916B
:101170003C0181110EC00E94030981E080933C0173
:101180002FEF83ED90E3215080409040E1F700C0C5
:10119000000080E40E9409098093000181112EC0A3
:1011A0000E94330980930001811128C00E943309F5
:1011B00080930001811122C08FE30E943309809344
:1011C000000181111BC00E942B0980E40E940909C3
:1011D00080930001811112C08CE00E94330980933A
:1011E000000181110BC00E9433098093000181111D
:1011F00005C08FE30E943309809300010E942B09F0
:101200008091000108951092B9008AE08093B8009F
:10121000089594EA9093BC009091BC0097FFFCCF96
:101220009091B900987F983021F0903111F081E0D1
:1012300008958093BB0084E88093BC008091BC003B
:1012400087FFFCCF8091B900887F883111F080340E
:1012500071F780E0089584E98093BC008091BC0020
:1012600084FDFCCF08958093BB0084E88093BC008C
:101270008091BC0087FFFCCF9091B900987F81E0FE
:10128000983209F480E0089584E88093BC0080914E
:10129000BC0087FFFCCF8091BB00089580910001C6
:1012A000811115C080E40E94090980930001811119
:1012B0000CC082E10E94330980930001811105C0B6
:1012C0008FEF0E943309809300010E942B0984B1A3
:1012D000807F84B985B1807F85B98AB1837F8AB9DF
:1012E0008BB1837F8BB93E98469808950E94B408CD
:1012F000809300010E944E0980B38C7080BB81B343
:10130000836F81BBECE4F1E0AEE3B1E011921D929A
:1013100081E0EA35F807D1F787E998E0892B11F0E9
:101320000C94970808959F92AF92BF92CF92DF924C
:10133000EF92FF920F931F93CF93DF938091000161
:101340008823E1F080913D018F5F80933D01811101
:1013500015C08BE493E00E945B070E94B408809361
:101360000001882329F081E393E00E945B0706C017
:101370008DE193E00E945B070E943F080EE311E0BD
:10138000C0E0D0E0BB24B39482E0A82ECC24C39468
:10139000D12C2EE0E22E23E0F22EC73000F5809112
:1013A0000001811162C080E40E940909809300015C
:1013B000811112C082E10E943309809300018111E2
:1013C0000BC0C6010C2E01C0880F0A94EAF7809565
:1013D0000E943309809300010E942B0946C0CA3045
:1013E000A1F028F4C83059F0C93061F005C0CC3004
:1013F00089F070F0CD3089F0209A289810C0219A99
:1014000029980DC0229A2A980AC0239A2B9807C0BF
:10141000529A01C0539A5B9802C03E9A4698E0EAFD
:10142000EA95F1F78FB1799985C092E081708B25AB
:10143000892B7C9B02C090E001C094E0892B7D9BAE
:1014400002C090E001C098E0892B7E9B02C090E032
:1014500001C090E1892B9FB19095991F9927991F01
:101460009295990F907E892B10C080910001811177
:1014700076C080E40E94090980930001882309F462
:101480005BC0912C0E942B09892DF801908198173F
:1014900039F1808380910101882301F18091D70186
:1014A00080FF04C083E193E00E945B078091D70135
:1014B00080FF0CC0809101011F928F93FF92EF92E9
:1014C0000E94F4070F900F900F900F908091D7011A
:1014D00080FF04C08CE093E00E945B07A0920101B2
:1014E0000E944E0921960F5F1F4FCE30D10509F0A3
:1014F00054CF809101018823B1F081508093010184
:10150000882339F08FE99FE00197F1F700C00000D0
:101510000AC0ACE4B1E0EEE3F1E081918D9391E09B
:10152000EC34F907D1F786E398E0892BD1F00E94DB
:10153000360817C090E07ACF83E10E943309809388
:10154000000181119ECF81E40E940909809300016E
:10155000811197CF0E944409982E909493CF80E0F8
:1015600094CF81E0DF91CF911F910F91FF90EF9089
:10157000DF90CF90BF90AF909F900895E82FF0E05C
:10158000E45BFE4F80810895CF92DF92EF92FF924D
:101590000F931F93CF93DF9385EF92E00E945B0739
:1015A0003CE4E32E31E0F32EC0E0D0E040EFC42E67
:1015B00042E0D42E07EE12E0DF93CF93DF92CF927A
:1015C0000E94F4078DEE92E00E945B07F701819183
:1015D0007F0190E00E9487219F938F931F930F9329
:1015E0000E94F40785EE92E00E945B0721968DB77A
:1015F0009EB708960FB6F8949EBF0FBE8DBFCE3033
:10160000D105D1F6DF91CF911F910F91FF90EF900F
:10161000DF90CF9008958B3B910578F4883A91053F
:1016200040F5853A9105D0F48430910508F0B1C0B9
:101630008130910509F4ADC06BC0803E910508F47E
:1016400067C0883E910508F4A4C09C01205F310961
:101650002031310508F05CC090650895853A910508
:1016600009F459C0863A910509F458C083E890E41A
:101670000895883A910509F454C0893A910509F40E
:1016800053C08A3A910509F452C08B3A910509F486
:1016900051C08C3A910509F450C08D3A910509F476
:1016A0004FC0803B910509F44EC08E3A910509F474
:1016B0004DC08F3A910509F44CC0813B910509F466
:1016C0004BC0823B910509F44AC0833B910509F464
:1016D00049C0843B910509F448C0853B910509F454
:1016E00047C0863B910509F446C0873B910509F444
:1016F00045C0883B910509F444C0893B910509F434
:1017000043C08A3B910509F042C08AE296E40895FD
:1017100080E090E0089581E890E4089582E890E404
:10172000089582EE94E4089589EE94E408958AEE93
:1017300094E4089585EB94E4089586EB94E4089589
:1017400087EB94E408958CEC94E408958DEC94E494
:10175000089583E895E408958AE895E4089582E978
:1017600095E4089584E995E4089581E296E4089566
:1017700083E296E4089584E296E4089585E296E48F
:10178000089586E296E4089587E296E4089580E05D
:1017900094E40895089596E0799FF001112494E56A
:1017A000899FE00DF11D1124E60FF11DEE0FFF1FC3
:1017B000E351FF4F859194910895880F991F8759A0
:1017C0009040FC01859194910895880F991F87514D
:1017D0009F4FFC0185919491089526E0729FF0013E
:1017E000112444E5849FE00DF11D1124E60FF11D45
:1017F000EE0FFF1FE351FF4F25913491C9019A95D8
:1018000081159F4110F4C9010895C90190528115B5
:10181000904128F4C9019F700E94E50B0895C90109
:1018200090538115904120F4C9019927906C089537
:10183000211580E5380769F40E94B21A9FEF24E36E
:101840004CE0915020404040E1F700C000000C9473
:101850004322213080E5380751F485E693E00E9469
:101860005B078091D70181608093D7010895C901FA
:1018700090558115904108F050C0832F99278F70A3
:10188000992781309105D9F4A9014370552702C0E9
:10189000880F991F4A95E2F79C68A90164E0440FFC
:1018A000551F6A95E1F744275370842B952B73E0FD
:1018B000220F331F7A95E1F7207633271DC082303F
:1018C000910529F4922F8827816F906A08958330BB
:1018D0009105A9F4A9014370552781E090E002C069
:1018E000880F991F4A95E2F79C6843E0220F331F47
:1018F0004A95E1F7207E3770822B932B0895049749
:10190000F1F4A9014370552781E090E002C0880FEF
:10191000991F4A95E2F79A68E8CFC9019057811557
:10192000904120F4C9019F7090620895C9019058B8
:101930008115904120F4C9019F70906A0895203E5E
:101940003105E0F4203C310558F52133310509F427
:1019500070C048F42932310509F464C02A323105D7
:1019600009F46EC074C029333105F1F02238310515
:10197000D9F02533310509F44EC069C0233E310545
:1019800089F138F4203E3105C1F0223E3105E1F005
:101990005EC0263E310569F1273E3105A9F157C0E9
:1019A000C9010E94DD0B08958091EA0180FD02C00B
:1019B00081FF4DC080EE90E04BC08091EA0180FF36
:1019C000F9CF89E390E044C08091EA0182FF0EC024
:1019D0008091EA0184FF03C080E090E039C083EE8B
:1019E00090E036C08091EA0182FFF2CF82EE90E073
:1019F0002FC08091EA0183FF0BC08091EA0184FD32
:101A0000EBCF87EE90E024C08091EA0183FFF5CF11
:101A100086EE90E01DC08091EA0185FF07C089E253
:101A200090E016C08091EA0185FFF9CF85E390E050
:101A30000FC08091EA0186FF07C08AE290E008C0EB
:101A40008091EA0186FFF9CF81E390E001C0C901EE
:101A50000E940B0B0895089580916D0108959FB722
:101A6000F89410925C019FBF9091F001943009F0BE
:101A700058C09091E9009F702091EC0020FF02C0B7
:101A800020E801C020E0292B94E09093E900909198
:101A9000EB0090FF43C09091EE0097FF3FC0909104
:101AA0005A01992321F09091E80095FF37C01092D8
:101AB0005A0196E03091E80035FD15C03091F001F3
:101AC000343061F53091EB0035FD28C0915021F4A0
:101AD00081E080935A0122C0EFE9FFE03197F1F7EE
:101AE00000C00000E7CF8093F1008091E80085FD01
:101AF0000AC08091E80080FFFCCF8091E8008E77DB
:101B00008093E80006C08FB7F89491E090935C0151
:101B10008FBF2F702093E90080E008952F702093ED
:101B2000E9008FEF0895CF93DF9300D01F92CDB7D8
:101B3000DEB72091F001243019F523E029839B833F
:101B40008A832093E9008FEF9091E800815095FD02
:101B500006C095ED9A95F1F700008111F5CF8091BF
:101B6000E80085FF0DC040E050E063E070E0CE018A
:101B700001960E9462108091E8008E778093E800C1
:101B80000F900F900F90DF91CF910895CF93DF9337
:101B900000D01F92CDB7DEB72091F001243021F59F
:101BA00022E029839B838A8383E08093E9008FEF7F
:101BB0009091E800815095FD06C095ED9A95F1F75A
:101BC00000008111F5CF8091E80085FF0DC040E055
:101BD00050E063E070E0CE0101960E9462108091B7
:101BE000E8008E778093E8000F900F900F90DF91C0
:101BF000CF9108952091F0012430F1F422E0209358
:101C0000E9002FEF3091E800215035FD06C035ED99
:101C10003A95F1F700002111F5CF2091E80025FF5A
:101C20000BC040E050E065E070E00E9462108091DF
:101C3000E8008E778093E8000895CF93DF93EC015E
:101C40008091F001843009F047C080910C01882315
:101C5000E1F080910D018823C1F085E08093E900D7
:101C60008FEF9091E800815095FD06C095E19A951F
:101C7000F1F700008111F5CF8091E80085FF2CC0BD
:101C800040E050E060E170E017C081E08093E9003F
:101C90008FEF9091E800815095FD06C095ED9A95E3
:101CA000F1F700008111F5CF8091E80085FF14C0A5
:101CB00040E050E068E070E0CE010E946210809148
:101CC000E8008E778093E80080E1FE01ADE5B1E0A9
:101CD00001900D928A95E1F7DF91CF9108958CE9FB
:101CE00093E00E945B078091EF01811109C00E947F
:101CF000F4110E9451128091E20084608093E2000E
:101D0000089588E993E00E945B071092EF0108951F
:101D100084E993E00C945B0780E993E00E945B0701
:101D20000C94042C8CE893E00E945B070E94DE2157
:101D30000E940A2C0E94ED140C942B0D80915B01E3
:101D40008F5F80935B0162E30E94782D911135C013
:101D500010925B0180915C01882379F18091F00100
:101D6000843049F58091E9008F709091EC0090FFEC
:101D700002C090E801C090E0982B84E08093E900D5
:101D80008091EB0080FF14C08091EE0087FF10C0AF
:101D90008091E80085FF03C01092F100F9CF809197
:101DA000E80080FF05C08091E8008E778093E8000E
:101DB0009F709093E90010925C01089542E061ECFD
:101DC00081E00E946E1142E061EC82E00E946E119F
:101DD00042E061EC83E00E946E1142E261EC84E03B
:101DE0000E946E1142E161EC85E00C946E118091CD
:101DF000F201833009F455C030F4813071F0823043
:101E000009F48EC008958A3009F47AC08B3009F441
:101E100060C0893009F09CC020C08091F101813AF6
:101E200009F096C08091E800877F8093E800809158
:101E3000F5019091F601892B21F060E080E090E0BF
:101E400003C060E18DE591E070E00E94AB108091ED
:101E5000E8008B778093E80008958091F10181324A
:101E600009F076C08091F5019091F601009719F084
:101E7000049709F06DC08091E800877F8093E800A7
:101E80008091E80082FD05C08091F0018111F8CFBA
:101E90005FC08091F10080936D018091E8008B77A5
:101EA00053C08091F101813A09F052C08091F5014F
:101EB0009091F601892B09F04BC08091E800877F53
:101EC0008093E8008091E80080FFFCCF80910C01B6
:101ED00036C08091F1018132D9F58091F501909160
:101EE000F601892BA9F58091E800877F8093E800AF
:101EF0000E94A3118091F30180930C010C94B21AFB
:101F00008091F101813221F58091E800877F8093F3
:101F1000E8000E94A3118091F40180936E0108955E
:101F20008091F101813AA1F48091E800877F80934C
:101F3000E8008091E80080FFFCCF80916E018093E3
:101F4000F1008091E8008E778093E8000C94A31153
:101F5000089584B7877F84BF88E10FB6F894809393
:101F60006000109260000FBE90E080E80FB6F89419
:101F700080936100909361000FBE0E9476150E94CD
:101F8000F4110E9451128091E20084608093E2007B
:101F90008FE29DE00E941D2178940E94CB140E9444
:101FA000781582E091E00E94E8140E94F22B8BE702
:101FB00093E00E945B078091F001853089F487E708
:101FC00093E00E945B070E94A1218091EE0188238B
:101FD00091F30E94C921882371F30E944C10EBCF2A
:101FE0000E94A615E8CF292F332723303105A9F009
:101FF0006CF42130310509F442C02230310509F07A
:1020000043C08DE890E024ED33E042C02132310539
:10201000C9F02232310519F137C099278130910575
:1020200041F08230910541F0892B71F5E0EDF3E04C
:1020300005C0E8EBF3E002C0E0EAF3E0849190E051
:102040009F0126C0653000F5E62FF0E0EE0FFF1F80
:10205000EB5DFE4F2081318189E090E019C0653051
:1020600098F4E62FF0E0DF01AA0FBB1FA55EBE4F7C
:102070002D913C91EA5EFE4F808190E009C082E1A3
:1020800090E021E634E004C080E090E020E030E021
:10209000FA0131832083089580E189BD82E189BD01
:1020A00009B400FEFDCF8091D8008F7D8093D800C9
:1020B0008091E00082608093E0008091E00081FDEB
:1020C000FCCF0895CF92DF92EF92FF920F931F9370
:1020D000CF93DF937C018B01EA010E94C41181112F
:1020E00031C0209731F088819981081B190BE80EC7
:1020F000F91EC12CD12C0115110519F18091E800B0
:1021000085FD14C08091E8008E778093E8002097C9
:1021100041F0888199818C0D9D1D9983888385E08C
:1021200011C00E94C411882331F30CC0F7018191C2
:102130007F018093F10001501109FFEFCF1ADF0AF0
:10214000DACF80E0DF91CF911F910F91FF90EF9058
:10215000DF90CF9008952091F7013091F801261774
:10216000370748F06115710539F42091E8002E77A2
:102170002093E80001C0B901FC0120E06115710560
:10218000B9F18091F001882309F440C0853009F449
:102190003FC08091E80083FD3DC08091E80082FF50
:1021A00006C08091E80082FF26C080E008958091FB
:1021B000E80080FFE3CF2091F3008091F20090E0EF
:1021C000922B6115710551F08830910538F42191F9
:1021D0002093F100615071090196F3CF21E0089737
:1021E00009F020E08091E8008E778093E800C6CF68
:1021F0002111C7CFD6CF8091F001882339F08530E7
:1022000039F08091E80083FFCCCF04C082E00895CC
:1022100083E0089581E008952091F7013091F8015D
:102220002617370748F06115710539F42091E80049
:102230002E772093E80001C0B901FC0120E0611570
:102240007105C1F18091F001882309F441C0853006
:1022500009F440C08091E80083FD3EC08091E80011
:1022600082FF06C08091E80082FF27C080E00895C9
:102270008091E80080FFE3CF2091F3008091F2008D
:1022800090E0922B6115710559F08830910540F46A
:1022900024912093F1003196615071090196F2CF9B
:1022A00021E0089709F020E08091E8008E77809384
:1022B000E800C5CF2111C6CFD5CF8091F00188238A
:1022C00039F0853039F08091E80083FFCBCF04C02E
:1022D00082E0089583E0089581E00895982F973073
:1022E00058F59093E900981739F07091EC0020911F
:1022F000ED005091F00003C0242F762F50E021FF15
:1023000019C03091EB003E7F3093EB003091ED002F
:102310003D7F3093ED003091EB0031603093EB0066
:102320007093EC002093ED005093F0002091EE00AC
:1023300027FF07C09F5FD3CF8F708093E90081E0B4
:10234000089580E008958091F10187FD05C0809196
:10235000E80080FF0EC012C08091E80082FD05C039
:102360008091F0018111F8CF08958091E8008B777A
:1023700008C08091F0018111EACF08958091E800B2
:102380008E778093E80008958091E4009091E500B5
:1023900045E62091EC0020FF21C02091E80020FDBF
:1023A00021C02091F001222389F0253089F020916D
:1023B000EB0025FD0FC02091E4003091E5002817C7
:1023C000390739F3415041F0C901E3CF82E0089564
:1023D00083E0089581E0089584E008952091E80065
:1023E00022FFDFCF80E008950E9462120E946A12ED
:1023F000E0EEF0E0808181608083E8EDF0E08081B4
:102400008F77808319BCA7EDB0E08C918E7F8C9381
:1024100080818F7E80831092EF0108950F931F9328
:10242000CF93DF930E9462120E946A12C8EDD0E03F
:1024300088818F77888388818068888388818F7D71
:10244000888319BC1092F0011092EC011092EE01F9
:102450001092ED0100EE10E0F80180818B7F808307
:1024600088818160888342E060E080E00E946E1194
:10247000E1EEF0E080818E7F8083E2EEF0E080810B
:1024800081608083808188608083F80180818E7F75
:102490008083888180618883DF91CF911F910F9124
:1024A0000895E8EDF0E080818F7E8083E7EDF0E035
:1024B00080818160808384E082BF81E08093EF012E
:1024C0000C940E12E8EDF0E080818E7F80831092F4
:1024D000E20008951092DA001092E10008951F9230
:1024E0000F920FB60F9211242F933F934F935F9348
:1024F0006F937F938F939F93AF93BF93EF93FF93CC
:102500008091E10082FF0BC08091E20082FF07C052
:102510008091E1008B7F8093E1000E949E0E80916C
:10252000DA0080FF1FC08091D80080FF1BC080911F
:10253000DA008E7F8093DA008091D90080FF0DC091
:1025400080E189BD82E189BD09B400FEFDCF81E053
:102550008093F0010E946F0E05C019BC1092F0012B
:102560000E94810E8091E10080FF19C08091E200FD
:1025700080FF15C08091E2008E7F8093E200809101
:10258000E20080618093E2008091D80080628093B5
:10259000D80019BC85E08093F0010E948C0E8091D8
:1025A000E10084FF30C08091E20084FF2CC080E114
:1025B00089BD82E189BD09B400FEFDCF8091D800BC
:1025C0008F7D8093D8008091E1008F7E8093E10021
:1025D0008091E2008F7E8093E2008091E200816032
:1025E0008093E2008091EC01882311F084E007C021
:1025F0008091E30087FF02C083E001C081E0809307
:10260000F0010E94920E8091E10083FF29C0809129
:10261000E20083FF25C08091E100877F8093E10085
:1026200082E08093F0011092EC018091E1008E7FB6
:102630008093E1008091E2008E7F8093E2008091A0
:10264000E20080618093E20042E060E080E00E946E
:102650006E118091F00088608093F0000E94880ED7
:10266000FF91EF91BF91AF919F918F917F916F916A
:102670005F914F913F912F910F900FBE0F901F9040
:1026800018951F920F920FB60F9211242F933F931C
:102690004F935F936F937F938F939F93AF93BF936A
:1026A000CF93EF93FF93C091E900CF708091EC003E
:1026B0001092E9008091F000877F8093F000789479
:1026C0000E947D131092E9008091F0008860809351
:1026D000F000C093E900FF91EF91CF91BF91AF91CE
:1026E0009F918F917F916F915F914F913F912F912A
:1026F0000F900FBE0F901F9018951F93CF93DF93ED
:10270000CDB7DEB7AA970FB6F894DEBF0FBECDBF28
:10271000E1EFF1E08091F100819321E0E93FF207E0
:10272000C9F70E94F70E8091E80083FF1CC1209139
:10273000F1013091F201832F90E08A30910508F089
:1027400012C1FC01EA5AFF4F0C94982D203881F0F9
:10275000223809F008C18091F5018F708093E9005B
:102760008091EB0085FB882780F91092E90006C074
:102770008091ED019091EE01911182609091E800BD
:10278000977F9093E8008093F1001092F100C5C00C
:10279000822F8D7F09F0E7C0222319F0223061F0EB
:1027A000E2C08091F301813009F0DDC0333009F0DF
:1027B00080E08093EE0128C08091F301811124C054
:1027C0002091F5012F7009F4CEC02093E90080918B
:1027D000EB0080FF19C08091EB00333011F4806270
:1027E00011C080618093EB0081E090E0022E01C077
:1027F000880F0A94EAF78093EA001092EA00809129
:10280000EB0088608093EB001092E9008091E80073
:10281000877F86C02111A7C01091F3011F77809197
:10282000E3008078812B8093E3008091E800877F2C
:102830008093E8000E94A3118091E80080FFFCCF04
:102840008091E30080688093E300112311F083E01E
:1028500001C082E08093F00186C02058223008F049
:1028600082C08091F3019091F4018C3D23E09207A6
:1028700079F583E08A838AE289834FB7F894DE0191
:10288000139620E03EE051E2E32FF0E05093570032
:10289000E49120FF03C0E295EF703F5FEF708E2F51
:1028A00090E0EA3010F0C79601C0C0968D939D93DA
:1028B0002F5F243149F74FBF8091E800877F8093D5
:1028C000E8006AE270E0CE0101960E94AB1014C0ED
:1028D000AE014F5F5F4F6091F5010E94F30F0097CB
:1028E00009F441C02091E800277F2093E800BC0153
:1028F00089819A810E940C118091E8008B778093E6
:10290000E80031C0203879F58091E800877F809316
:10291000E8008091EC018093F1008091E8008E77CF
:102920008093E8000E94A3111EC021111CC0909149
:10293000F3019230C0F48091E800877F8093E80033
:102940009093EC010E94A3118091EC01811104C0CD
:102950008091E30087FF02C084E001C081E08093A2
:10296000F0010E94DE0E8091E80083FF0AC0809192
:10297000E800877F8093E8008091EB00806280937D
:10298000EB00AA960FB6F894DEBF0FBECDBFDF9165
:10299000CF911F910895CF938091F0018823B1F0DA
:1029A0008091E9008F709091EC0090FF02C090E858
:1029B00001C090E0C92FC82B1092E9008091E80077
:1029C00083FD0E947D13CF70C093E900CF910895DD
:1029D00090937401809373010895E0917301F091D5
:1029E0007401309721F00190F081E02D099480E08E
:1029F0000895FF920F931F93CF93DF938C01E09183
:102A00007301F0917401309799F10280F381E02D08
:102A100009958091D70182FF2BC080FF04C086E911
:102A200095E00E945B07E80180E1F82E00E915E0DF
:102A30008091D70180FF0BC088811F928F931F93D5
:102A40000F930E94F4070F900F900F900F90FA943D
:102A50002196F110EDCF8091D70180FF09C08EE85B
:102A600095E0DF91CF911F910F91FF900C945B0740
:102A7000DF91CF911F910F91FF900895E091730125
:102A8000F0917401309721F00480F581E02D0994D4
:102A9000089520917101309172018217930771F0AE
:102AA0009093720180937101E0917301F091740130
:102AB000309721F00680F781E02D09940895209148
:102AC0006F01309170018217930771F0909370013C
:102AD00080936F01E0917301F0917401309721F0C0
:102AE0000084F185E02D0994089508950C947515DE
:102AF0000E94E0210E9476090C94A622CF93C82F51
:102B00008091D70182FF1EC080FF04C08FEA95E04C
:102B10000E945B078091D70180FF0CC01F92CF936A
:102B20002AEA35E03F932F930E94F4070F900F900D
:102B30000F900F908091D70180FF04C088EA95E044
:102B40000E945B078C2FCF910C942B0DCF92DF92BC
:102B5000EF92FF920F931F93CF93DF93CDB7DEB722
:102B60002B970FB6F894DEBF0FBECDBF0E9493091E
:102B700036E7E32E31E0F32E00E010E0C02E802F88
:102B80000E94BE0AF701D1907F01D826B1F40F5FF1
:102B90001F4F0E30110591F78FEF89838A831B82B7
:102BA0000E94E9218160782F9D838C8349815A811D
:102BB0006B818D810E94491641C09091D70191FF90
:102BC00004C08B870E94C40A8B8520E030E04D2D25
:102BD00050E0922FBA01022E02C0759567950A94B3
:102BE000E2F760FF25C02E83CF82EE24E394F12C20
:102BF00002C0EE0CFF1C9A95E2F790E08E219F2117
:102C000021E0892B09F420E028870E94E9218160D6
:102C1000782F9A8789874E815F8168858A850E948F
:102C20004916F801EA58FE4F80818E25808306C040
:102C30002F5F3F4F2630310561F6A9CF0E94142641
:102C4000109175010E94ED141817A1F00E94ED1467
:102C5000809375012B960FB6F894DEBF0FBECDBFE3
:102C6000DF91CF911F910F91FF90EF90DF90CF9068
:102C70000C947E152B960FB6F894DEBF0FBECDBF19
:102C8000DF91CF911F910F91FF90EF90DF90CF9048
:102C90000895CF93DF93CDB7DEB72B970FB6F89497
:102CA000DEBF0FBECDBF4F83588769877A878B877A
:102CB000DE01119686E0FD0111928A95E9F785E023
:102CC000FE01379601900D928A95E1F749815A816C
:102CD0006B817C818D819E810E947E1D2B960FB61B
:102CE000F894DEBF0FBECDBFDF91CF910895CF9393
:102CF000C82F882309F4C1C0823859F40E94ED140A
:102D000081FDBBC089E30E941B200E94F72089E35C
:102D10000CC0833879F40E94ED1480FDAEC083E5C9
:102D20000E941B200E94F72083E50E946C20CF9117
:102D30000C94F720843859F40E94ED1482FD9DC054
:102D400087E40E941B200E94F72087E4EECF8CEFDF
:102D50008C0F813A48F48C2F0E949D2A81118DC0DE
:102D60008C2F0E941B20E3CF80E28C0F883048F428
:102D7000C77081E001C0880FCA95EAF70E94BE20A3
:102D8000D6CF8BE58C0F833078F4C53A29F0C63A5C
:102D900031F482E890E005C081E890E002C083E869
:102DA00090E0CF910C94491588E58C0F833108F0A1
:102DB00064C0C83A39F1C93A41F1CA3A49F1CB3A4B
:102DC00051F1CC3A59F1CD3A61F1C03B69F1CE3ABB
:102DD00071F1CF3A79F1C13B81F1C23B89F1C33B3B
:102DE00091F1C43B99F1C53BA1F1C63BA9F1C73BA9
:102DF000B1F1C83BB9F1C93BC1F1CA3BC9F58AE29F
:102E000092E038C082EE90E035C089EE90E032C0AA
:102E10008AEE90E02FC085EB90E02CC086EB90E02E
:102E200029C087EB90E026C08CEC90E023C08DECAD
:102E300090E020C083E891E01DC08AE891E01AC0CC
:102E400082E991E017C084E991E014C081E292E048
:102E500011C083E292E00EC084E292E00BC085E2F2
:102E600092E008C086E292E005C087E292E002C0EC
:102E700080E090E0CF910C945F15CF910895882366
:102E800009F44BC0823859F40E94ED1481FF45C00B
:102E900089E30E941B200E94F72089E30CC083383D
:102EA00071F40E94ED1480FF38C083E50E941B205E
:102EB0000E94F72083E50E946C200C94F720843850
:102EC00059F40E94ED1482FF28C087E40E941B2061
:102ED0000E94F72087E4EFCF9CEF980F913A58F3C8
:102EE00090E2980F983050F4877091E001C0990FEC
:102EF0008A95EAF7892F0E94C420DFCF9BE5980FBF
:102F0000933020F480E090E00C944915885A833186
:102F100020F480E090E00C945F150895882321F060
:102F20000E94BE200C94F7200895882321F00E946F
:102F3000C4200C94F7200895CF92DF92EF92FF9275
:102F40000F931F93CF93DF93CDB7DEB728970FB6BC
:102F5000F894DEBF0FBECDBF8C0185E0F801DE0125
:102F6000119601900D928A95E1F7F8014081318127
:102F7000F280258122952F7083819481892B31F0F5
:102F80003F3F31F481E04F3F19F403C081E001C0BD
:102F900080E080FDC6C249833A8389819A812F836C
:102FA0000E94D91F9E8388870E94D81F0E94AB1E53
:102FB0004E81E42FE295EF70F0E0E05AFF4F2F8151
:102FC00068850C94982D842F807F142F1F70882380
:102FD00011F01295107FFF2059F0112309F456C209
:102FE000812F68870E94CE200E94F72068854EC2FC
:102FF000862F0E943F17112309F493C2812F0E944C
:10300000D42028960FB6F894DEBF0FBECDBFDF9157
:10301000CF911F910F91FF90EF90DF90CF900C9484
:10302000F720342F307F842F8F70303211F082954B
:10303000807F662319F0613019F12CC0FF20B1F0B8
:10304000222309F494C1213009F091C128960FB6CA
:10305000F894DEBF0FBECDBFDF91CF911F910F91CE
:10306000FF90EF90DF90CF900C94DE20222319F098
:10307000213009F456C28E830E94E1208E818AC1DC
:10308000FF2021F0263008F04CC271C1253008F035
:1030900048C280C1FF2021F0222309F468C1F6C193
:1030A000222309F477C106C2242F26952695237082
:1030B00030E02115310521F021303105C9F031C250
:1030C000FF2021F0862F942F937002C080E090E0C3
:1030D00028960FB6F894DEBF0FBECDBFDF91CF911B
:1030E0001F910F91FF90EF90DF90CF900C944915B6
:1030F000FF2021F0862F942F937002C080E090E093
:1031000028960FB6F894DEBF0FBECDBFDF91CF91EA
:103110001F910F91FF90EF90DF90CF900C945F156F
:10312000862FFF2019F00E949A2402C00E940225D7
:1031300028960FB6F894DEBF0FBECDBFDF91CF91BA
:103140001F910F91FF90EF90DF90CF900C94872507
:10315000842F837009F076C0F110E3C1262F2295E9
:1031600026952770220F220F862F8F70C82ED12C04
:10317000E12CF12C022E04C0CC0CDD1CEE1CFF1C3B
:103180000A94D2F764FF10C06FE070E080E090E036
:1031900004C0660F771F881F991F2A95D2F7609584
:1031A00070958095909503C060E070E0CB01242F6E
:1031B000269526952370422F50E042305105D1F0DC
:1031C0004330510559F16C297D298E299F294130C1
:1031D000510541F128960FB6F894DEBF0FBECDBF62
:1031E000DF91CF911F910F91FF90EF90DF90CF90E3
:1031F0000C94D01E6C297D298E299F2928960FB604
:10320000F894DEBF0FBECDBFDF91CF911F910F911C
:10321000FF90EF90DF90CF900C94EA1E0E94D01E9A
:10322000C701B60128960FB6F894DEBF0FBECDBF1A
:10323000DF91CF911F910F91FF90EF90DF90CF9092
:103240000C94B61EFF2019F0842F817001C0869562
:10325000882309F466C1262F229526952770220F10
:10326000220F862F8F70C82ED12CE12CF12C022E2C
:1032700004C0CC0CDD1CEE1CFF1C0A94D2F764FFCA
:1032800010C06FE070E080E090E004C0660F771F30
:10329000881F991F2A95D2F7609570958095909513
:1032A00003C060E070E0CB01242F269526952370A3
:1032B000422F50E042305105D1F04330510559F1D1
:1032C0006C297D298E299F294130510541F128968D
:1032D0000FB6F894DEBF0FBECDBFDF91CF911F9127
:1032E0000F91FF90EF90DF90CF900C94A41F6C296A
:1032F0007D298E299F2928960FB6F894DEBF0FBE30
:10330000CDBFDF91CF911F910F91FF90EF90DF9094
:10331000CF900C94BE1F0E94A41FC701B60128962F
:103320000FB6F894DEBF0FBECDBFDF91CF911F91D6
:103330000F91FF90EF90DF90CF900C948A1F603F29
:10334000C9F118F4603E50F49CC0623F09F461C0BA
:1033500008F44BC0633F09F470C093C0162F1F7070
:10336000842F8F71FF2099F00E94231F812F2896B0
:103370000FB6F894DEBF0FBECDBFDF91CF911F9186
:103380000F91FF90EF90DF90CF900C948E170E94DA
:10339000441F812F28960FB6F894DEBF0FBECDBF15
:1033A000DF91CF911F910F91FF90EF90DF90CF9021
:1033B0000C949517FF20A9F0253008F0B2C0842F97
:1033C0008F7128960FB6F894DEBF0FBECDBFDF9188
:1033D000CF911F910F91FF90EF90DF90CF900C94C1
:1033E000691F263008F09DC0EACFFF20A1F0842F8E
:1033F0008F7128960FB6F894DEBF0FBECDBFDF9158
:10340000CF911F910F91FF90EF90DF90CF900C9490
:10341000231FFF2061F3842F8F7128960FB6F89435
:10342000DEBF0FBECDBFDF91CF911F910F91FF90F7
:10343000EF90DF90CF900C94441FFF2091F0842FE9
:103440008F7128960FB6F894DEBF0FBECDBFDF9107
:10345000CF911F910F91FF90EF90DF90CF900C9440
:103460000E1F28960FB6F894DEBF0FBECDBFDF91BA
:10347000CF911F910F91FF90EF90DF90CF900C9420
:10348000041FFF20A1F0222309F4B1CF862F289634
:103490000FB6F894DEBF0FBECDBFDF91CF911F9165
:1034A0000F91FF90EF90DF90CF900C94771622232E
:1034B00009F4B1CF862F28960FB6F894DEBF0FBE61
:1034C000CDBFDF91CF911F910F91FF90EF90DF90D3
:1034D000CF900C943F174F70C8010E94FD072896AB
:1034E0000FB6F894DEBF0FBECDBFDF91CF911F9115
:1034F0000F91FF90EF90DF90CF900C942B1E4F70A8
:10350000C80128960FB6F894DEBF0FBECDBFDF917D
:10351000CF911F910F91FF90EF90DF90CF900C947F
:10352000CA0B28960FB6F894DEBF0FBECDBFDF9151
:10353000CF911F910F91FF90EF90DF90CF90089562
:103540000E94DB200E94B0200E94F7200E94B52636
:103550000E94872580E090E00E94491580E090E07D
:103560000C945F150E94CB200C94A01A0E94D91FC6
:10357000292F22952F7030E02C3031054CF42A3061
:1035800031056CF4225031092230310590F407C026
:103590002C30310551F02F30310539F00AC0803E12
:1035A00010F0803F31F481E0089593FB882780F983
:1035B000089580E00895CF93DF9300D000D01F924C
:1035C000CDB7DEB70F900F900F900F900F90DF9157
:1035D000CF910895CF93DF9300D000D000D0CDB726
:1035E000DEB726960FB6F894DEBF0FBECDBFDF91D3
:1035F000CF9108951F93CF93DF93C091840116E07C
:1036000080918501C81799F0D0E01C9FF0011D9FA3
:10361000F00D1124EA57FE4F408151816281738180
:10362000848195810E94EA1A2196C770E9CFDF91C3
:10363000CF911F9108954091B6015091B7016091CB
:10364000B8017091B9018091BA019091BB010C94BD
:10365000EA1ACF938091BB0182958F7009F05FC009
:103660008091B801882309F45AC020918401A09167
:1036700085016091B6017091B7018091B901909177
:10368000BA0131E06F3F09F030E0B32FC6E02A17EE
:1036900009F445C0009721F07F3F21F44B2F03C070
:1036A00041E001C040E030E040FD35C0C29FF00184
:1036B000C39FF00D1124EA57FE4F418174132BC0B4
:1036C0004081641328C04281411125C04381548147
:1036D0004817590710F441505109481B590B483CF1
:1036E0005105C8F48091BB018F7080618093BB014C
:1036F00086E0829FF001839FF00D1124E557FE4F75
:1037000080818F708061808386EB91E00E949C179E
:10371000CF910C94FA1A2F5F3F4F2770B8CFCF91FB
:103720000895CF92DF92EF92FF920F931F93CF9362
:10373000DF93CDB7DEB762970FB6F894DEBF0FBE4A
:10374000CDBF8C0185E0F801DE011D9601900D9240
:103750008A95E1F7D8014C9111965C9111971296D8
:103760006C9112971396ED90FC9014977091B6019E
:10377000E091B7012091B9013091BA0121153105CD
:1037800031F0EF3F31F481E07F3F19F403C081E075
:1037900001C080E0B82FB170CB2E80FD6CC1D090FD
:1037A000B801DD2009F4F5C0F091BB01E216F30683
:1037B00038F0C701821B930B883C910548F09BC0F1
:1037C000209530952E0D3F1D283C310508F093C003
:1037D0008F2F807F09F052C0E51314C0741312C0FC
:1037E000D62E61110FC0FF70F061F093BB010E94F3
:1037F0001B1B86EB91E00E949C178091BB01F80196
:1038000085836CC1EF2831F05F3F31F481E04F3F99
:1038100019F403C081E001C080E080FD03C081E0B5
:10382000862701C080E0F82FF170FF2E80FF1CC0BA
:10383000809184012091850136E0821709F428C126
:1038400090E0389FF001399FF00D1124EA57FE4FA8
:103850007181571306C07081471303C072816713CB
:1038600003C001968770E9CFD62E662309F436C1CE
:103870008091BB0181608093BB0153C0E51308C0F8
:10388000741306C0611104C0D8011596FC93AEC034
:103890004D875E878D859E856A8B0E94B61A6A89E0
:1038A000882329F1D62E662311F12091BB01822FA6
:1038B00082958F7090E002970CF460C08091B60101
:1038C0009091B70198878F831986FB86EA862C87AB
:1038D000CE01079651C0E51731F14D875E878D8582
:1038E0009E856A8B0E94B61A6A8981112EC0C80112
:1038F0000E949C17A4C08F2F807F69F77E2DF98AC4
:10390000E88A89890E94DB1A86EB91E00E949C1765
:10391000E6EBF1E086E0DF011D928A95E9F70E946F
:103920001B1BD12CDBC07413D8CF6111D6CFD801AB
:103930001596FC93C8010E949C17E6EBF1E086E027
:10394000DF011D928A95E9F7C9C0D62E662379F268
:103950002091BB01822F82958F7090E0029774F0C6
:103960008091B6019091B7019A8389831B82FD8271
:10397000EC822E83CE0101960E949C1786E0F8010E
:10398000A6EBB1E001900D928A95E1F70E94291B08
:103990006FC0E216F30628F0C701821B930B9C014F
:1039A00004C0209530952E0D3F1D283C310508F0B0
:1039B00052C0D62E662309F49ACFE5132CC0741397
:1039C0002AC08091BB0180FD1DC0982F92959F70E9
:1039D000C9F0D80115968C9315979F3039F09F5FE9
:1039E0009295907F8F70892B15968C93C8010E94B9
:1039F0009C1786E0F801A6EBB1E001900D928A9544
:103A0000E1F736C086E0F801A6EBB1E001900D9237
:103A10008A95E1F763C04D875E878D859E850E94FC
:103A2000B61A882379F086E0F801A6EBB1E00190A0
:103A30000D928A95E1F70E94291B0E941B1BDD2431
:103A4000D3944CC08091BB0181608093BB01C801BD
:103A50000E949C1743C07E2DF98AE88A89890E94BA
:103A6000DB1AE6EBF1E086E0DF011D928A95E9F7CB
:103A70000E941B1B33C0662309F439CF4D875E8734
:103A80008D859E850E94B61A882309F430CFCBCF4E
:103A90004D875E878D859E850E94D91F292F22958F
:103AA0002F7030E0223031052CF49F7041F08111ED
:103AB00006C00CC0243031052CF49F7049F4805EA0
:103AC000883020F0C8010E949C17CF2CDC2C06C047
:103AD000D80115969C91907F91F7F8CF8D2D629625
:103AE0000FB6F894DEBF0FBECDBFDF91CF911F910F
:103AF0000F91FF90EF90DF90CF9008951F93CF9399
:103B0000DF93CDB7DEB72C970FB6F894DEBF0FBEAC
:103B1000CDBF4F83588769877A878B879C87CE0173
:103B200007960E94911B8823C1F02F8138858A85D2
:103B30009B85892B31F03F3F11F080E003C02F3F80
:103B4000E1F781E0811147C04F81588569857A8509
:103B50008B859C850E94EA1A3EC086E0FE0137965E
:103B6000DE01119601900D928A95E1F7FF81E885BB
:103B70004A855B854115510531F0EF3F31F481E015
:103B8000FF3F19F403C081E001C080E080FD23C045
:103B90002091850130E0C9010196877099276091D5
:103BA000840170E086179707F1F1F983EA835D835A
:103BB0004C8396E0929FD001939FB00D1124AA5799
:103BC000BE4FFE01319601900D929A95E1F78093D8
:103BD00085010E94FA1A16E0809184019091850176
:103BE000891779F1189FC00111248A579E4F0E94AE
:103BF000911B882331F1E09184011E9FF001112473
:103C0000EA57FE4F408151816281738184819581A1
:103C10000E94EA1A8091840190E0019687709927AA
:103C200080938401D9CF0E94B21A1092850110921C
:103C30008401E6EBF1E086E0DF011D928A95E9F769
:103C4000CACF2C960FB6F894DEBF0FBECDBFDF9162
:103C5000CF911F910895EF92FF920F931F93CF93EF
:103C6000DF93FC01009709F46FC0F12CEE24E3947C
:103C7000EF0121968491843740F4843008F055C0D8
:103C8000813081F0823021F15FC0853709F447C06F
:103C9000C0F19CE7980F903708F056C08F770E94CC
:103CA0003F1745C08F010E5F1F4FFE01849190E2C8
:103CB000980F983050F48770FE2D01C0FF0F8A9541
:103CC000EAF78F2F0E94CE2015C00E94771614C0ED
:103CD0008F010E5F1F4FFE01849190E2980F983084
:103CE00068F48770FE2D01C0FF0F8A95EAF78F2FC9
:103CF0000E94D4200E94F720E80119C00E943F17BB
:103D0000FBCFCF010296FE01C491CC2361F0EFE915
:103D1000FFE03197F1F700C00000C150F6CFCF01AE
:103D20000296FE01F490EC0102C00E9477168F2DDE
:103D3000882341F0EFE9FFE03197F1F700C0000080
:103D40008150F6CFFE0194CFDF91CF911F910F915B
:103D5000FF90EF90089508956093C0017093C101A2
:103D60008093C2019093C3010C94A01A0F931F93E8
:103D70000091C0011091C1012091C2013091C30195
:103D8000062B172B282B392B0093C0011093C10150
:103D90002093C2013093C3011F910F910C94A01A7C
:103DA0000F931F930091C0011091C1012091C20196
:103DB0003091C30106231723282339230093C00120
:103DC0001093C1012093C2013093C3011F910F9141
:103DD0000C94A01A0F931F930091C0011091C10180
:103DE0002091C2013091C3010627172728273927C0
:103DF0000093C0011093C1012093C2013093C3010D
:103E00001F910F910C94A01A1092BC011092BD0149
:103E10001092BE011092BF010C94A01A41E050E034
:103E200060E070E004C0440F551F661F771F8A953D
:103E3000D2F74093BC015093BD016093BE017093D3
:103E4000BF010C94A01A41E050E060E070E004C0B3
:103E5000440F551F661F771F8A95D2F78091BC01CA
:103E60009091BD01A091BE01B091BF01842B952B13
:103E7000A62BB72B8093BC019093BD01A093BE01EC
:103E8000B093BF010C94A01A41E050E060E070E0F4
:103E900004C0440F551F661F771F8A95D2F74095BF
:103EA0005095609570958091BC019091BD01A09155
:103EB000BE01B091BF0184239523A623B72380932D
:103EC000BC019093BD01A093BE01B093BF010C94BF
:103ED000A01A41E050E060E070E004C0440F551FBC
:103EE000661F771F8A95D2F78091BC019091BD0122
:103EF000A091BE01B091BF0184279527A627B727BF
:103F00008093BC019093BD01A093BE01B093BF010B
:103F10000C94A01A0F931F930091BC011091BD0146
:103F20002091BE013091BF01062B172B282B392B76
:103F30000093BC011093BD012093BE013093BF01DB
:103F40001F910F910C94A01A0F931F930091BC0125
:103F50001091BD012091BE013091BF0106231723AE
:103F6000282339230093BC011093BD012093BE0187
:103F70003093BF011F910F910C94A01A0F931F93C0
:103F80000091BC011091BD012091BE013091BF0193
:103F900006271727282739270093BC011093BD0156
:103FA0002093BE013093BF011F910F910C94A01A72
:103FB0000895CF92DF92EF92FF920F931F93CF93CA
:103FC000DF93EC01C090C001D090C101E090C2012C
:103FD000F090C3018091BC019091BD01A091BE0100
:103FE000B091BF01C82AD92AEA2AFB2A0FE110E0C2
:103FF000B701A601002E04C07695679557954795A1
:104000000A94D2F740FF07C0BE01802F0E94ED0B3B
:104010008130910539F40150110950F7BE0180E05B
:104020000E94ED0BDF91CF911F910F91FF90EF90C8
:10403000DF90CF90089590910C01992361F19091B8
:104040000D01992341F1982F9695969596959F305D
:1040500088F4E0910E01F0910F01E90FF11D8770D6
:1040600021E030E001C0220F8A95EAF78181822B9E
:10407000818308959091D70190FF2DC01F928F9357
:1040800080EE95E09F938F930E94F4070F900F901E
:104090000F900F90089540910E0150910F0120E074
:1040A00030E09FEFFA01E20FF31F6281681799F089
:1040B0009F3F19F4611101C0922F2F5F3F4F2E30A7
:1040C000310581F79F3F39F0FA01E90FF11D97FDA6
:1040D000FA9582830895089590910C01992369F1CE
:1040E00090910D01992349F1982F96959695969563
:1040F0009F3090F4E0910E01F0910F01E90FF11D56
:10410000877021E030E001C0220F8A95EAF7209500
:1041100081812823218308959091D70190FF1FC0AA
:104120001F928F9382EC95E09F938F930E94F407E8
:104130000F900F900F900F90089540910E015091A5
:104140000F0120E030E0FA01E20FF31F9281981393
:1041500001C012822F5F3F4F2E303105A1F7089525
:1041600081E090E0E0910E01F0910F01E80FF91F5E
:104170001082019680319105A9F708959091D6019A
:10418000982B9093D601089580959091D60198230D
:104190009093D60108951092D60108959091D5017B
:1041A000982B9093D501089580959091D5019823EF
:1041B0009093D50108951092D50108958093C4017C
:1041C00008951092C401089540910E0150910F017D
:1041D00020E030E080E0FA01E20FF31F91819111BD
:1041E0008F5F2F5F3F4F2F303105A9F70895E09182
:1041F0000E01F0910F018091D6018083E0910E01B4
:10420000F0910F0180819091D501892B808390914D
:10421000C401992361F0E0910E01F0910F018081BA
:10422000892B80830E94E42081111092C401809127
:104230000E0190910F010C94F91490933B0180931F
:104240003A010895CF92DF92EF92FF920F931F935E
:104250006C01EE24FF24C114D104E104F10421F423
:104260006B017C0180E001C080E133272F2D1E2DE2
:104270000D2D011511052105310519F0885F680123
:10428000790197018601A4E0369527951795079542
:10429000AA95D1F7011511052105310519F08C5F9B
:1042A0006801790197018601F2E036952795179507
:1042B0000795FA95D1F7011511052105310519F07A
:1042C0008E5F68017901B701A601769567955795CC
:1042D0004795452B462B472B09F08F5F1F910F9178
:1042E000FF90EF90DF90CF9008958295982F9C7C5F
:1042F00096959695837344E0849F90011124922BA8
:10430000892F8A7A86959575990F892B08951F9321
:10431000CF93DF931F92CDB7DEB799830E947521AB
:10432000182F9981892F0E947521212F30E0322F7B
:104330002227A901482BCA010F90DF91CF911F912D
:1043400008958091F001843009F11092D80120E4A1
:1043500088E190E00FB6F894A895809360000FBEB6
:104360002093600083B7817F846083BF83B78160BF
:1043700083BF7894889583B78E7F83BF88E10FB61B
:10438000F89480936000109260000FBE0895089525
:104390000895CF930E94C7210E9493090E94C821CB
:1043A000C0E08C2F0E94BE0A811105C0CF5FCE30C5
:1043B000C1F780E001C081E0CF9108950C94B21A5A
:1043C00082E084BD93E095BD9AEF97BD80936E0027
:1043D00008952FB7F8948091D9019091DA01A091B6
:1043E000DB01B091DC012FBF0895CF92DF92EF92F5
:1043F000FF920F931F932FB7F8944091D9015091DA
:10440000DA016091DB017091DC012FBF6A017B0151
:10441000EE24FF248C0120E030E0C016D106E20635
:10442000F30610F441505109481B590BCA011F9162
:104430000F91FF90EF90DF90CF9008951F920F9211
:104440000FB60F9211248F939F93AF93BF938091D8
:10445000D9019091DA01A091DB01B091DC010196C4
:10446000A11DB11D8093D9019093DA01A093DB01C6
:10447000B093DC01BF91AF919F918F910F900FBED0
:104480000F901F9018950E94F411F8942FEF87EA6F
:1044900091E6215080409040E1F700C0000087E0A5
:1044A00090EBDC018093F9019093FA01A093FB015A
:1044B000B093FC012CE088E190E00FB6F894A89549
:1044C000809360000FBE20936000FFCFEF92FF92B9
:1044D0000F931F93CF93DF93E82EF12C8F2D0E9423
:1044E000BE0AC0E0D0E0082F10E098010C2E02C0F8
:1044F000359527950A94E2F720FD05C02196C63030
:10450000D10599F709C06C2F7F2D80E00E94CB0B5D
:10451000E812F4CF81E005C0F3948EE0F812DECF0C
:1045200080E0DF91CF911F910F91FF90EF90089560
:10453000CF93C82F8CE20E946622882321F08C2F13
:10454000CF910C94662280E0CF910895CF930E9482
:10455000F323811102C00E94D92385E096E00E94D6
:104560005B07C5E6C15049F00E9493098FE39CE9BF
:104570000197F1F700C00000F5CF8EEF95E00E94A3
:104580005B0789E20E949822811111C18AE20E9490
:10459000982281110E94D92385E00E9498228111DE
:1045A0000E9443220E94FE238093D70187E00E944D
:1045B0009822882399F18BE10E949822882351F058
:1045C0009091D70191FB882780F921E0822780FB19
:1045D00091F922C08EE00E949822882351F0909198
:1045E000D70192FB882780F921E0822780FB92F98E
:1045F00013C080E10E9498229091D701882341F056
:1046000093FB882780F921E0822780FB93F904C07F
:10461000892F809580FB90F99093D7018091D701E5
:104620000E9402240E9410248093EA0180EE0E94DE
:104630009822882341F08091EA01982F909590FB71
:1046400080F98093EA0189E30E949822882359F037
:104650009091EA0191FB882780F921E0822780FB75
:1046600091F99093EA0182EE0E949822882359F0F2
:104670009091EA0192FB882780F921E0822780FB54
:1046800092F99093EA0186EE0E949822882359F0CD
:104690009091EA0193FB882780F921E0822780FB33
:1046A00093F99093EA0183EE0E949822882359F0AF
:1046B0009091EA0194FB882780F921E0822780FB12
:1046C00094F99093EA0185E30E949822882359F097
:1046D0009091EA0195FB882780F921E0822780FBF1
:1046E00095F99093EA0181E30E949822882359F07A
:1046F0009091EA0196FB882780F921E0822780FBD0
:1047000096F99093EA0181E10E949822882359F05A
:104710009091EA0197FB882780F921E0822780FBAE
:1047200097F99093EA018091EA010E941424809104
:10473000EA0187FB882780F980930D0187E20E94B8
:104740009822C82F8EE10E9498228111C2608FE1C9
:104750000E9498228111C46080E20E9498228111F7
:10476000C86081E20E9498228111C06182E20E94A9
:1047700098228111C06283E20E9498228111C06454
:1047800084E20E949822882311F0C06802C0CC23E2
:1047900029F08C2F0E940B246C2F03C00E94072449
:1047A000682F70E080E090E0CF910C94AC1ECF9128
:1047B00008956DEE7EEF80E090E00E94CE2D60E0E7
:1047C00082E090E00E94C02D60E083E090E00E94D3
:1047D000C02D60E084E090E00E94C02D60E085E0A4
:1047E00090E00C94C02D80E090E00E94BA2D21E072
:1047F0008D3E9E4F09F020E0822F089582E090E0E8
:104800000C94B22D682F82E090E00C94C02D83E0D0
:1048100090E00C94B22D682F83E090E00C94C02DB2
:1048200084E090E00C94B22D682F84E090E00C942A
:10483000C02D8091DF0180FF0BC06091130185E0E6
:10484000689FB001112475956795759567952AC085
:1048500081FF09C06091130185E0689FB0011124B8
:10486000759567951FC082FF07C06091130185E0B1
:10487000689FB001112416C04091E0014423C9F0A3
:1048800060911201461788F72091130185E0289F57
:1048900090011124429FC001439F900D112470E0AC
:1048A0000E94842D6038710540F46115710539F05E
:1048B00002C065E070E0862F08958FE7089581E0DB
:1048C00008958091DF0180FF08C06091110170E0C0
:1048D000759567957595679521C081FF06C06091B4
:1048E000110170E07595679519C082FF04C0609151
:1048F000110170E010C08091E0018823C1F0609147
:1049000010018617A0F790911101989FC001112402
:1049100070E00E94842D6038710528F461157105DE
:1049200021F0862F08958FE7089581E0089561E0D2
:1049300070E0F4CF803F21F40E941924819504C0D7
:10494000813F29F40E9419248093E3010895823F56
:1049500021F40E941924819504C0833F29F40E9408
:1049600019248093E2010895893F19F40E9461247B
:1049700005C08A3F31F40E94612481958093E4014F
:1049800008958B3F21F40E946124819504C08C3FDF
:1049900029F40E9461248093E5010895843F21F465
:1049A0008091E101816017C0853F21F48091E10190
:1049B000826011C0863F21F48091E10184600BC0C8
:1049C000873F21F48091E101886005C0883F31F480
:1049D0008091E10180618093E10108958D3F21F490
:1049E0008091DF0181600BC08E3F21F48091DF0157
:1049F000826005C08F3F29F48091DF01846080933D
:104A0000DF010895803F39F48091E30187FF6CC096
:104A10001092E30169C0813F29F48091E3011816E7
:104A2000BCF362C09091E201823F29F497FF5CC021
:104A30001092E20159C0833F19F41916CCF354C007
:104A4000893F41F48091E40118160CF04DC010929A
:104A5000E4014AC08A3F29F48091E40187FF44C001
:104A6000F6CF8B3F39F48091E50187FF3DC010926E
:104A7000E5013AC08C3F29F48091E5011816BCF39A
:104A800033C0843F21F48091E1018E7F17C0853FC0
:104A900021F48091E1018D7F11C0863F21F4809146
:104AA000E1018B7F0BC0873F21F48091E101877F7B
:104AB00005C0883F31F48091E1018F7E8093E10150
:104AC00013C08D3F21F48091DF018E7F0BC08E3F9C
:104AD00021F48091DF018D7F05C08F3F29F4809103
:104AE000DF018B7F8093DF018091E20181110EC095
:104AF0008091E30181110AC08091E401811106C017
:104B00008091E501811102C01092E0010895809129
:104B1000D70183FF7EC081E496E00E945B0780910D
:104B2000E1011F928F938CE396E09F938F930E94F5
:104B3000F4078AE396E00E945B072091E201822F4E
:104B4000992787FD90959F932F9387E396E09F93F6
:104B50008F930E94F40785E396E00E945B07209103
:104B6000E301822F992787FD90959F932F9382E3EE
:104B700096E09F938F930E94F40780E396E00E9453
:104B80005B072091E401822F992787FD90959F93E1
:104B90002F938DE296E09F938F930E94F4078BE210
:104BA00096E00E945B072091E501822F992787FDFF
:104BB00090959F932F9388E296E09F938F930E9406
:104BC000F40785E296E00E945B078091E0011F9266
:104BD0008F9382E296E09F938F930E94F40780E286
:104BE00096E00E945B078091DF011F928F938DE119
:104BF00096E09F938F930E94F4078AE196E00E94CB
:104C00005B078DB79EB74C960FB6F8949EBF0FBE4C
:104C10008DBF81EE91E00E943E150E94E9219093A4
:104C2000DE018093DD0108951F93CF93DF93809180
:104C3000DD019091DE010E94F5214091E0014423C5
:104C400021F02091140130E006C0209115015AE0B6
:104C5000259F900111248217930708F482C0809148
:104C6000E2011091E301D091E401C091E5018111CD
:104C700007C0111105C0D11103C0CC2309F471C0C4
:104C80004F3F19F04F5F4093E001181624F40E9443
:104C900019248093E2018091E20187FF05C00E9400
:104CA000192481958093E201111624F40E9419249D
:104CB0008093E3018091E30187FF05C00E941924DE
:104CC00081958093E3016091E201662339F11091AF
:104CD000E301112319F1772767FD7095872F972F2F
:104CE0000E94892C23E333E343E35FE30E94ED2C2E
:104CF0000E94562C6093E201612F772767FD709523
:104D0000872F972F0E94892C23E333E343E35FE34C
:104D10000E94ED2C0E94562C6093E3011D1624F492
:104D20000E9461248093E4018091E40187FF05C023
:104D30000E94612481958093E4011C1624F40E9452
:104D400061248093E5018091E50187FF05C00E9401
:104D5000612481958093E501DF91CF911F910C949F
:104D60008725DF91CF911F910895E1EEF1E085E075
:104D7000DF011D928A95E9F71092E0011092DF01A0
:104D8000089584E698E00E945B071F9281E08F936C
:104D90001F9285E08F9386E198E09F938F930E9406
:104DA000F4070F900F900F900F900F900F900895B1
:104DB0008330E9F128F4813061F0823009F10895FF
:104DC000853009F462C008F449C0863009F474C023
:104DD000089520911501862F90E0820F911D8F3F3D
:104DE000910520F4620F6093150103C08FEF80934B
:104DF0001501809115011F928F938FE497E072C087
:104E000020911401862F90E0820F911D8F3F910514
:104E100020F4620F6093140103C08FEF809314019C
:104E2000809114011F928F938DE397E05BC02091D6
:104E30001301862F90E0820F911D8F3F910520F482
:104E4000620F6093130103C08FEF80931301809171
:104E500013011F928F938AE297E044C020911201C0
:104E6000862F90E0820F911D8F3F910520F4620FF5
:104E70006093120103C08FEF8093120180911201A1
:104E80001F928F9385E197E02DC020911101862F0D
:104E900090E0820F911D8F3F910520F4620F609387
:104EA000110103C08FEF80931101809111011F92B6
:104EB0008F938CEF96E016C020911001862F90E022
:104EC000820F911D8F3F910520F4620F60931001B6
:104ED00003C08FEF80931001809110011F928F9378
:104EE00081EE96E09F938F930E94F4070F900F90AE
:104EF0000F900F900895833081F128F4813059F09C
:104F00008230D1F00895853009F449C0B8F1863077
:104F100009F456C0089580911501681720F4861B86
:104F20008093150102C010921501809115011F9206
:104F30008F9382ED96E054C080911401681720F49D
:104F4000861B8093140102C01092140180911401F9
:104F50001F928F9380EC96E043C0809113016817F5
:104F600020F4861B8093130102C0109213018091DC
:104F700013011F928F938DEA96E032C08091120147
:104F8000681720F4861B8093120102C01092120150
:104F9000809112011F928F9388E996E021C0809141
:104FA0001101681720F4861B8093110102C0109232
:104FB0001101809111011F928F938FE796E010C02D
:104FC00080911001681720F4861B8093100102C0A5
:104FD00010921001809110011F928F9384E696E049
:104FE0009F938F930E94F4070F900F900F900F9054
:104FF0000895CF93C82F1F928F9329E639E03F93EE
:105000002F930E94F40761E070E080E090E004C01C
:10501000660F771F881F991FCA95D2F70E94AC1E92
:105020000F900F900F900F90CF910C94B21ACF93D6
:105030008D3109F465C0B0F58E3009F4CBC100F5AF
:10504000873009F49BC1A8F4863009F06AC28091C8
:10505000D701817F8E7F8093D7018EE699E00E94F1
:105060005B0783EB9DE00E945B0781E08093E70193
:1050700080C1883009F44FC08B3009F47CC151C223
:10508000863109F4EDC138F4803109F4B6C18131BB
:1050900009F42DC246C2893109F4CBC18B3109F420
:1050A00086C13FC2853309F434C248F4873209F41B
:1050B00030C208F430C2893209F42BC232C28334C0
:1050C00038F48A3308F029C2883309F454C129C25C
:1050D000833409F41EC2883409F023C20E94B21A34
:1050E00082EA9DE00E945B079FEF23ED80E39150F1
:1050F00020408040E1F700C000000E94432239C1F7
:1051000082EC9DE00E945B070E94102C0E94ED142F
:105110000E942B0D2EC187EB9DE00E945B078FE75D
:105120009BE00E945B070E9407241F928F938CE7ED
:105130009BE09F938F930E94F4078AE79BE00E9475
:105140005B070E94FE23C82F87E69BE00E945B0757
:105150001F92CF9322E63BE03F932F930E94F407E8
:1051600080E69BE00E945B0786E59BE00E945B0770
:105170008C2F81701F928F9323E53BE03F932F93F9
:105180000E94F40781E59BE00E945B0787E49BE0B7
:105190000E945B07C1FB882780F91F928F9324E44C
:1051A0003BE03F932F930E94F40782E49BE00E9430
:1051B0005B0786E39BE00E945B07C2FB882780F9C0
:1051C0001F928F9323E33BE03F932F930E94F407BA
:1051D00081E39BE00E945B0788E29BE00E945B0703
:1051E000C3FBCC27C0F91F92CF9385E29BE09F932E
:1051F0008F930E94F40783E29BE00E945B070E946A
:105200001024C82F8FE09BE00E945B071F92CF9372
:105210002AE03BE03F932F930E94F40788E09BE055
:105220000E945B078FEE9AE00E945B078C2F8170D3
:105230001F928F932CEE3AE03F932F930E94F40736
:105240008DB79EB780960FB6F8949EBF0FBE8DBFE8
:105250008AEE9AE00E945B0783ED9AE00E945B076A
:10526000C1FB882780F91F928F9320ED3AE03F938E
:105270002F930E94F4078EEC9AE00E945B078CEB60
:105280009AE00E945B07C2FB882780F91F928F93E8
:1052900029EB3AE03F932F930E94F40787EB9AE0C3
:1052A0000E945B0785EA9AE00E945B07C3FB8827A0
:1052B00080F91F928F9322EA3AE03F932F930E9446
:1052C000F40780EA9AE00E945B0786E99AE00E9470
:1052D0005B07C4FB882780F91F928F9323E93AE08C
:1052E0003F932F930E94F40781E99AE00E945B07A5
:1052F0008FE79AE00E945B07C5FB882780F91F9221
:105300008F932CE73AE03F932F930E94F4078AE7AC
:105310009AE00E945B078EE59AE00E945B07C6FB5D
:10532000882780F91F928F932BE53AE03F932F93C4
:105330000E94F40789E59AE00E945B0781E59AE004
:105340000E945B07C7FBCC27C0F91F92CF938EE466
:105350009AE09F938F930E94F4078CE49AE00E9456
:105360005B078DB79EB74C960FB6F8949EBF0FBEE5
:105370008DBFC1E0DBC085E999E058C08091D701BD
:10538000C82FC17080FF09C085E99DE00E945B07BE
:105390008091D701817F8E7F44C089E89DE00E9483
:1053A0005B078091D70181608093D701E2CF809124
:1053B000D70181FBCC27C0F991E0C927C0FB81F957
:1053C0008093D701CC2319F08CE79DE025C08EE6B1
:1053D0009DE02CC08091D70182FBCC27C0F991E0E1
:1053E000C927C0FB82F98093D701CC2319F08FE540
:1053F0009DE012C08FE49DE019C08091D70183FB2E
:10540000CC27C0F991E0C927C0FB83F98093D7016D
:10541000CC2351F083E49DE00E945B078091D7018B
:1054200081608093D70182C086E39DE00E945B0784
:10543000A0CF87E29DE00E945B078BEF9CE00E947B
:105440005B078EEB9CE00E945B0781E99CE00E9479
:105450005B078DE49CE00E945B078FE19CE0E6CF58
:1054600081E19CE00E945B070E94ED141F928F93E4
:1054700087EF9BE09F938F930E94F40780910C012C
:105480001F928F9380EE9BE09F938F930E94F4076F
:1054900080916E011F928F938DEC9BE09F938F9371
:1054A0000E94F40780910D011F928F938AEB9BE07D
:1054B0009F938F930E94F4078091D9019091DA0114
:1054C000A091DB01B091DC01BF93AF939F938F93C9
:1054D00086EA9BE09F938F930E94F4078DB79EB757
:1054E00046960FB6F8949EBF0FBE8DBF42CF0E9466
:1054F000B21AC0910D0181E0C827C0930D01CC23E1
:1055000029F08CE99BE00E945B0710C081E99BE0D9
:105510008DCF80E003C08D5101C089530E94F927CF
:1055200028CF8FE89BE00E945B07C0E08C2FCF91D3
:10553000089580E0089580E00895CF93C82F80916A
:10554000E701813081F020F0823009F44CC042C183
:10555000A0910E01B0910F018C91813169F08232DE
:1055600009F03AC109C0A0910E01B0910F018C91D0
:10557000813111F0823249F48C2F0E94992A8111D5
:105580002FC08C2F0E9417282CC08C2F0E949B2A82
:10559000811126C0C431E1F070F4CB3081F0C0310C
:1055A000D1F40E94C12681E699E00E945B0782E067
:1055B0008093E70115C0C93259F0C83361F48EE613
:1055C00099E00E945B0785E699E00E945B0708C0AE
:1055D0001092E70103C18FE599E00E945B07FEC0CE
:1055E00081E08170FDC0C43220F5CE3108F0C0C02A
:1055F000CB3099F1C8F4C73009F0D2C08AE080936B
:10560000150194E19093140193E09093130180931A
:10561000120188E08093110188E28093100185E0F7
:1056200098E00E945B07BFC0C33149F1C431C1F0AB
:10563000B7C0CB3409F4A9C028F4C93289F0C83303
:1056400061F0AEC0C13509F49EC0C23509F499C0FD
:10565000CE3409F0A5C06AE09EC00E94C126A3C056
:105660008091E601882319F01092E6019CC082E146
:1056700098E00E945B0781E08093E701B1C08CEE67
:1056800097E00E945B078AED97E00E945B0780919C
:1056900015011F928F9387ED97E09F938F930E9440
:1056A000F40785ED97E00E945B0783EC97E00E948A
:1056B0005B07809114011F928F9380EC97E09F937A
:1056C0008F930E94F4078EEB97E00E945B078FEAAE
:1056D00097E00E945B07809113011F928F938CEAE1
:1056E00097E09F938F930E94F4078AEA97E00E94C5
:1056F0005B0789E997E00E945B07809112011F9286
:105700008F9386E997E09F938F930E94F40784E933
:1057100097E00E945B078FE797E00E945B0780910C
:1057200011011F928F938CE797E09F938F930E94B4
:10573000F4078AE797E00E945B0783E697E00E9400
:105740005B07809110011F928F9380E697E09F93F3
:105750008F930E94F4078EE597E00E945B078DB758
:105760009EB748960FB6F8949EBF0FBE8DBF1BC064
:10577000CE51EC2FF0E0E15DFE4F80818093E60199
:1057800012C061E003C061E006C06AE08091E601FA
:105790000E94D82608C08091E6010E947B2703C0A2
:1057A00083E098E013C08091E601882369F01F929E
:1057B0008F938DEF97E09F938F930E94F4070F9044
:1057C0000F900F900F9004C08AEF97E00E945B0744
:1057D00081E006C01092E70180E002C080E001CFC6
:1057E000CF910895E1E8F0E0808188608083808136
:1057F000816080838FB7F89493E09093890090ED57
:10580000909388008FBF0895EFE6F0E0808182607A
:1058100080830895EFE6F0E080818D7F8083089596
:10582000EFE6F0E0808192E08927808308951F925F
:105830000F920FB60F9211242F933F934F935F93C4
:105840006F937F938F939F93AF93BF93EF93FF9348
:105850008091E8019091E90101969093E90180938C
:10586000E801811103C082E00E942B0DE091E90163
:10587000E695E695F0E0EE52F24FE4918091E80172
:105880008E1303C080E00E942B0DFF91EF91BF911A
:10589000AF919F918F917F916F915F914F913F91C8
:1058A0002F910F900FBE0F901F90189504D0689401
:1058B000B1118DC0089570D088F09F5790F0B92F26
:1058C0009927B751A0F0D1F0660F771F881F991F55
:1058D0001AF0BA95C9F712C0B13081F077D0B1E0B3
:1058E000089574C0672F782F8827B85F39F0B93FC3
:1058F000CCF3869577956795B395D9F73EF4909557
:105900008095709561957F4F8F4F9F4F0895E894D4
:1059100009C097FB3EF490958095709561957F4FF7
:105920008F4F9F4F9923A9F0F92F96E9BB279395A5
:10593000F695879577956795B795F111F8CFFAF4B5
:10594000BB0F11F460FF1BC06F5F7F4F8F4F9F4FE6
:1059500016C0882311F096E911C0772321F09EE844
:10596000872F762F05C0662371F096E8862F70E0AA
:1059700060E02AF09A95660F771F881FDAF7880F84
:105980009695879597F9089557FD9058440F551FA0
:1059900059F05F3F71F04795880F97FB991F61F0B1
:1059A0009F3F79F087950895121613061406551F28
:1059B000F2CF4695F1DF08C0161617061806991F94
:1059C000F1CF86957105610508940895E894BB2789
:1059D00066277727CB0197F908950BD078C069D057
:1059E00028F06ED018F0952309F05AC05FC011243A
:1059F000EECFCADFA0F3959FD1F3950F50E0551F6E
:105A0000629FF001729FBB27F00DB11D639FAA2713
:105A1000F00DB11DAA1F649F6627B00DA11D661F62
:105A2000829F2227B00DA11D621F739FB00DA11D83
:105A3000621F839FA00D611D221F749F3327A00D3D
:105A4000611D231F849F600D211D822F762F6A2FD9
:105A500011249F5750408AF0E1F088234AF0EE0F5E
:105A6000FF1FBB1F661F771F881F91505040A9F76B
:105A70009E3F510570F014C0AACF5F3FECF3983EF3
:105A8000DCF3869577956795B795F795E7959F5FD2
:105A9000C1F7FE2B880F911D9695879597F908956C
:105AA00097F99F6780E870E060E008959FEF80ECD1
:105AB000089500240A941616170618060906089574
:105AC00000240A9412161306140605060895092EDA
:105AD0000394000C11F4882352F0BB0F40F4BF2B49
